{
	"data": {
		"bytecode": {
			"linkReferences": {},
			"object": "608060405260405180606001604052806040518060400160405280600581526020017f436f696e4100000000000000000000000000000000000000000000000000000081525081526020016040518060400160405280600581526020017f436f696e4200000000000000000000000000000000000000000000000000000081525081526020016040518060400160405280600581526020017f436f696e430000000000000000000000000000000000000000000000000000008152508152506000906003620000d092919062000215565b50655af3107a4000600255348015620000e857600080fd5b5060005b6000805490508110156200020e57600080828154811062000112576200011162000630565b5b906000526020600020016000838154811062000133576200013262000630565b5b906000526020600020016040516200014b906200027c565b62000158929190620004d8565b604051809103906000f08015801562000175573d6000803e3d6000fd5b5090508060016000848154811062000192576200019162000630565b5b90600052602060002001604051620001ab9190620004bf565b908152602001604051809103902060006101000a81548173ffffffffffffffffffffffffffffffffffffffff021916908373ffffffffffffffffffffffffffffffffffffffff160217905550508080620002059062000584565b915050620000ec565b506200065f565b82805482825590600052602060002090810192821562000269579160200282015b8281111562000268578251829080519060200190620002579291906200028a565b509160200191906001019062000236565b5b5090506200027891906200031b565b5090565b6118fe8062001d0483390190565b82805462000298906200054e565b90600052602060002090601f016020900481019282620002bc576000855562000308565b82601f10620002d757805160ff191683800117855562000308565b8280016001018555821562000308579182015b8281111562000307578251825591602001919060010190620002ea565b5b50905062000317919062000343565b5090565b5b808211156200033f576000818162000335919062000362565b506001016200031c565b5090565b5b808211156200035e57600081600090555060010162000344565b5090565b50805462000370906200054e565b6000825580601f10620003845750620003a5565b601f016020900490600052602060002090810190620003a4919062000343565b5b50565b60008154620003b7816200054e565b620003c3818662000528565b94506001821660008114620003e15760018114620003f4576200042b565b60ff19831686526020860193506200042b565b620003ff8562000513565b60005b83811015620004235781548189015260018201915060208101905062000402565b808801955050505b50505092915050565b6000815462000443816200054e565b6200044f818662000539565b945060018216600081146200046d57600181146200047f57620004b6565b60ff19831686528186019350620004b6565b6200048a8562000513565b60005b83811015620004ae578154818901526001820191506020810190506200048d565b838801955050505b50505092915050565b6000620004cd828462000434565b915081905092915050565b60006040820190508181036000830152620004f48185620003a8565b905081810360208301526200050a8184620003a8565b90509392505050565b60008190508160005260206000209050919050565b600082825260208201905092915050565b600081905092915050565b6000819050919050565b600060028204905060018216806200056757607f821691505b602082108114156200057e576200057d62000601565b5b50919050565b6000620005918262000544565b91507fffffffffffffffffffffffffffffffffffffffffffffffffffffffffffffffff821415620005c757620005c6620005d2565b5b600182019050919050565b7f4e487b7100000000000000000000000000000000000000000000000000000000600052601160045260246000fd5b7f4e487b7100000000000000000000000000000000000000000000000000000000600052602260045260246000fd5b7f4e487b7100000000000000000000000000000000000000000000000000000000600052603260045260246000fd5b611695806200066f6000396000f3fe6080604052600436106100915760003560e01c806389f4b3171161005957806389f4b317146101a8578063a93325ed146101e5578063bf015aae14610222578063c40912361461024b578063db6f63ee1461028857610091565b80634f64b2be146100965780635463109e146100d357806363fcf7c5146101105780636932cf811461014057806370ed0ada1461017d575b600080fd5b3480156100a257600080fd5b506100bd60048036038101906100b89190610f0a565b6102c5565b6040516100ca91906110f8565b60405180910390f35b3480156100df57600080fd5b506100fa60048036038101906100f59190610d35565b610371565b604051610107919061113a565b60405180910390f35b61012a60048036038101906101259190610d35565b610436565b604051610137919061113a565b60405180910390f35b34801561014c57600080fd5b5061016760048036038101906101629190610d35565b61060c565b60405161017491906110f8565b60405180910390f35b34801561018957600080fd5b506101926106d6565b60405161019f919061113a565b60405180910390f35b3480156101b457600080fd5b506101cf60048036038101906101ca9190610dc7565b6106de565b6040516101dc919061113a565b60405180910390f35b3480156101f157600080fd5b5061020c60048036038101906102079190610d35565b6107af565b60405161021991906110dd565b60405180910390f35b34801561022e57600080fd5b5061024960048036038101906102449190610e23565b6107f8565b005b34801561025757600080fd5b50610272600480360381019061026d9190610d35565b6109a7565b60405161027f9190611062565b60405180910390f35b34801561029457600080fd5b506102af60048036038101906102aa9190610eae565b6109ef565b6040516102bc919061113a565b60405180910390f35b600081815481106102d557600080fd5b9060005260206000200160009150905080546102f090611489565b80601f016020809104026020016040519081016040528092919081815260200182805461031c90611489565b80156103695780601f1061033e57610100808354040283529160200191610369565b820191906000526020600020905b81548152906001019060200180831161034c57829003601f168201915b505050505081565b6000600182604051610383919061104b565b908152602001604051809103902060009054906101000a900473ffffffffffffffffffffffffffffffffffffffff1673ffffffffffffffffffffffffffffffffffffffff166318160ddd6040518163ffffffff1660e01b815260040160206040518083038186803b1580156103f757600080fd5b505afa15801561040b573d6000803e3d6000fd5b505050506040513d601f19601f8201168201806040525081019061042f9190610f37565b9050919050565b600080349050600061052c600185604051610451919061104b565b908152602001604051809103902060009054906101000a900473ffffffffffffffffffffffffffffffffffffffff1673ffffffffffffffffffffffffffffffffffffffff1663313ce5676040518163ffffffff1660e01b815260040160206040518083038186803b1580156104c557600080fd5b505afa1580156104d9573d6000803e3d6000fd5b505050506040513d601f19601f820116820180604052508101906104fd9190610f64565b600a6105099190611256565b61051e60025485610b9390919063ffffffff16565b610ba990919063ffffffff16565b905060018460405161053e919061104b565b908152602001604051809103902060009054906101000a900473ffffffffffffffffffffffffffffffffffffffff1673ffffffffffffffffffffffffffffffffffffffff1663a9059cbb33836040518363ffffffff1660e01b81526004016105a79291906110b4565b602060405180830381600087803b1580156105c157600080fd5b505af11580156105d5573d6000803e3d6000fd5b505050506040513d601f19601f820116820180604052508101906105f99190610d08565b61060257600080fd5b8092505050919050565b606060018260405161061e919061104b565b908152602001604051809103902060009054906101000a900473ffffffffffffffffffffffffffffffffffffffff1673ffffffffffffffffffffffffffffffffffffffff166306fdde036040518163ffffffff1660e01b815260040160006040518083038186803b15801561069257600080fd5b505afa1580156106a6573d6000803e3d6000fd5b505050506040513d6000823e3d601f19601f820116820180604052508101906106cf9190610d7e565b9050919050565b600047905090565b60006001836040516106f0919061104b565b908152602001604051809103902060009054906101000a900473ffffffffffffffffffffffffffffffffffffffff1673ffffffffffffffffffffffffffffffffffffffff166370a08231836040518263ffffffff1660e01b81526004016107579190611062565b60206040518083038186803b15801561076f57600080fd5b505afa158015610783573d6000803e3d6000fd5b505050506040513d601f19601f820116820180604052508101906107a79190610f37565b905092915050565b6001818051602081018201805184825260208301602085012081835280955050505050506000915054906101000a900473ffffffffffffffffffffffffffffffffffffffff1681565b600183604051610808919061104b565b908152602001604051809103902060009054906101000a900473ffffffffffffffffffffffffffffffffffffffff1673ffffffffffffffffffffffffffffffffffffffff166323b872dd3330846040518463ffffffff1660e01b81526004016108739392919061107d565b602060405180830381600087803b15801561088d57600080fd5b505af11580156108a1573d6000803e3d6000fd5b505050506040513d601f19601f820116820180604052508101906108c59190610d08565b6108ce57600080fd5b6001826040516108de919061104b565b908152602001604051809103902060009054906101000a900473ffffffffffffffffffffffffffffffffffffffff1673ffffffffffffffffffffffffffffffffffffffff1663a9059cbb33836040518363ffffffff1660e01b81526004016109479291906110b4565b602060405180830381600087803b15801561096157600080fd5b505af1158015610975573d6000803e3d6000fd5b505050506040513d601f19601f820116820180604052508101906109999190610d08565b6109a257600080fd5b505050565b60006001826040516109b9919061104b565b908152602001604051809103902060009054906101000a900473ffffffffffffffffffffffffffffffffffffffff169050919050565b600080610a0d670de0b6b3a764000084610b9390919063ffffffff16565b90506000610a2660025483610ba990919063ffffffff16565b905080471015610a6b576040517f08c379a0000000000000000000000000000000000000000000000000000000008152600401610a629061111a565b60405180910390fd5b3373ffffffffffffffffffffffffffffffffffffffff166108fc829081150290604051600060405180830381858888f19350505050158015610ab1573d6000803e3d6000fd5b50600185604051610ac2919061104b565b908152602001604051809103902060009054906101000a900473ffffffffffffffffffffffffffffffffffffffff1673ffffffffffffffffffffffffffffffffffffffff166323b872dd3330876040518463ffffffff1660e01b8152600401610b2d9392919061107d565b602060405180830381600087803b158015610b4757600080fd5b505af1158015610b5b573d6000803e3d6000fd5b505050506040513d601f19601f82011682018060405250810190610b7f9190610d08565b610b8857600080fd5b809250505092915050565b60008183610ba191906111d2565b905092915050565b60008183610bb79190611374565b905092915050565b6000610bd2610bcd8461117a565b611155565b905082815260208101848484011115610bee57610bed6115ad565b5b610bf9848285611447565b509392505050565b6000610c14610c0f8461117a565b611155565b905082815260208101848484011115610c3057610c2f6115ad565b5b610c3b848285611456565b509392505050565b600081359050610c5281611603565b92915050565b600081519050610c678161161a565b92915050565b600082601f830112610c8257610c816115a8565b5b8135610c92848260208601610bbf565b91505092915050565b600082601f830112610cb057610caf6115a8565b5b8151610cc0848260208601610c01565b91505092915050565b600081359050610cd881611631565b92915050565b600081519050610ced81611631565b92915050565b600081519050610d0281611648565b92915050565b600060208284031215610d1e57610d1d6115b7565b5b6000610d2c84828501610c58565b91505092915050565b600060208284031215610d4b57610d4a6115b7565b5b600082013567ffffffffffffffff811115610d6957610d686115b2565b5b610d7584828501610c6d565b91505092915050565b600060208284031215610d9457610d936115b7565b5b600082015167ffffffffffffffff811115610db257610db16115b2565b5b610dbe84828501610c9b565b91505092915050565b60008060408385031215610dde57610ddd6115b7565b5b600083013567ffffffffffffffff811115610dfc57610dfb6115b2565b5b610e0885828601610c6d565b9250506020610e1985828601610c43565b9150509250929050565b600080600060608486031215610e3c57610e3b6115b7565b5b600084013567ffffffffffffffff811115610e5a57610e596115b2565b5b610e6686828701610c6d565b935050602084013567ffffffffffffffff811115610e8757610e866115b2565b5b610e9386828701610c6d565b9250506040610ea486828701610cc9565b9150509250925092565b60008060408385031215610ec557610ec46115b7565b5b600083013567ffffffffffffffff811115610ee357610ee26115b2565b5b610eef85828601610c6d565b9250506020610f0085828601610cc9565b9150509250929050565b600060208284031215610f2057610f1f6115b7565b5b6000610f2e84828501610cc9565b91505092915050565b600060208284031215610f4d57610f4c6115b7565b5b6000610f5b84828501610cde565b91505092915050565b600060208284031215610f7a57610f796115b7565b5b6000610f8884828501610cf3565b91505092915050565b610f9a816113ce565b82525050565b610fa981611423565b82525050565b6000610fba826111ab565b610fc481856111b6565b9350610fd4818560208601611456565b610fdd816115bc565b840191505092915050565b6000610ff3826111ab565b610ffd81856111c7565b935061100d818560208601611456565b80840191505092915050565b6000611026601e836111b6565b9150611031826115da565b602082019050919050565b6110458161140c565b82525050565b60006110578284610fe8565b915081905092915050565b60006020820190506110776000830184610f91565b92915050565b60006060820190506110926000830186610f91565b61109f6020830185610f91565b6110ac604083018461103c565b949350505050565b60006040820190506110c96000830185610f91565b6110d6602083018461103c565b9392505050565b60006020820190506110f26000830184610fa0565b92915050565b600060208201905081810360008301526111128184610faf565b905092915050565b6000602082019050818103600083015261113381611019565b9050919050565b600060208201905061114f600083018461103c565b92915050565b600061115f611170565b905061116b82826114bb565b919050565b6000604051905090565b600067ffffffffffffffff82111561119557611194611579565b5b61119e826115bc565b9050602081019050919050565b600081519050919050565b600082825260208201905092915050565b600081905092915050565b60006111dd8261140c565b91506111e88361140c565b9250826111f8576111f761151b565b5b828204905092915050565b6000808291508390505b600185111561124d57808604811115611229576112286114ec565b5b60018516156112385780820291505b8081029050611246856115cd565b945061120d565b94509492505050565b60006112618261140c565b915061126c83611416565b92506112997fffffffffffffffffffffffffffffffffffffffffffffffffffffffffffffffff84846112a1565b905092915050565b6000826112b1576001905061136d565b816112bf576000905061136d565b81600181146112d557600281146112df5761130e565b600191505061136d565b60ff8411156112f1576112f06114ec565b5b8360020a915084821115611308576113076114ec565b5b5061136d565b5060208310610133831016604e8410600b84101617156113435782820a90508381111561133e5761133d6114ec565b5b61136d565b6113508484846001611203565b92509050818404811115611367576113666114ec565b5b81810290505b9392505050565b600061137f8261140c565b915061138a8361140c565b9250817fffffffffffffffffffffffffffffffffffffffffffffffffffffffffffffffff04831182151516156113c3576113c26114ec565b5b828202905092915050565b60006113d9826113ec565b9050919050565b60008115159050919050565b600073ffffffffffffffffffffffffffffffffffffffff82169050919050565b6000819050919050565b600060ff82169050919050565b600061142e82611435565b9050919050565b6000611440826113ec565b9050919050565b82818337600083830152505050565b60005b83811015611474578082015181840152602081019050611459565b83811115611483576000848401525b50505050565b600060028204905060018216806114a157607f821691505b602082108114156114b5576114b461154a565b5b50919050565b6114c4826115bc565b810181811067ffffffffffffffff821117156114e3576114e2611579565b5b80604052505050565b7f4e487b7100000000000000000000000000000000000000000000000000000000600052601160045260246000fd5b7f4e487b7100000000000000000000000000000000000000000000000000000000600052601260045260246000fd5b7f4e487b7100000000000000000000000000000000000000000000000000000000600052602260045260246000fd5b7f4e487b7100000000000000000000000000000000000000000000000000000000600052604160045260246000fd5b600080fd5b600080fd5b600080fd5b600080fd5b6000601f19601f8301169050919050565b60008160011c9050919050565b7f4465782069732072756e6e696e67206c6f77206f6e2062616c616e63652e0000600082015250565b61160c816113ce565b811461161757600080fd5b50565b611623816113e0565b811461162e57600080fd5b50565b61163a8161140c565b811461164557600080fd5b50565b61165181611416565b811461165c57600080fd5b5056fea264697066735822122030b04bf0cd43d95d356ac18b4365b38dcf0781d525ef4979df58daee39baf46064736f6c6343000806003360806040523480156200001157600080fd5b50604051620018fe380380620018fe83398181016040528101906200003791906200033f565b818181600390805190602001906200005192919062000211565b5080600490805190602001906200006a92919062000211565b5050506200009133710125dfa371a19e6f7cb54395ca00000000006200009960201b60201c565b50506200068f565b600073ffffffffffffffffffffffffffffffffffffffff168273ffffffffffffffffffffffffffffffffffffffff1614156200010c576040517f08c379a00000000000000000000000000000000000000000000000000000000081526004016200010390620003fc565b60405180910390fd5b62000120600083836200020760201b60201c565b8060026000828254620001349190620004ab565b92505081905550806000808473ffffffffffffffffffffffffffffffffffffffff1673ffffffffffffffffffffffffffffffffffffffff168152602001908152602001600020600082825401925050819055508173ffffffffffffffffffffffffffffffffffffffff16600073ffffffffffffffffffffffffffffffffffffffff167fddf252ad1be2c89b69c2b068fc378daa952ba7f163c4a11628f55a4df523b3ef83604051620001e791906200041e565b60405180910390a362000203600083836200020c60201b60201c565b5050565b505050565b505050565b8280546200021f9062000548565b90600052602060002090601f0160209004810192826200024357600085556200028f565b82601f106200025e57805160ff19168380011785556200028f565b828001600101855582156200028f579182015b828111156200028e57825182559160200191906001019062000271565b5b5090506200029e9190620002a2565b5090565b5b80821115620002bd576000816000905550600101620002a3565b5090565b6000620002d8620002d28462000464565b6200043b565b905082815260208101848484011115620002f757620002f662000646565b5b6200030484828562000512565b509392505050565b600082601f83011262000324576200032362000641565b5b815162000336848260208601620002c1565b91505092915050565b6000806040838503121562000359576200035862000650565b5b600083015167ffffffffffffffff8111156200037a57620003796200064b565b5b62000388858286016200030c565b925050602083015167ffffffffffffffff811115620003ac57620003ab6200064b565b5b620003ba858286016200030c565b9150509250929050565b6000620003d3601f836200049a565b9150620003e08262000666565b602082019050919050565b620003f68162000508565b82525050565b600060208201905081810360008301526200041781620003c4565b9050919050565b6000602082019050620004356000830184620003eb565b92915050565b6000620004476200045a565b90506200045582826200057e565b919050565b6000604051905090565b600067ffffffffffffffff82111562000482576200048162000612565b5b6200048d8262000655565b9050602081019050919050565b600082825260208201905092915050565b6000620004b88262000508565b9150620004c58362000508565b9250827fffffffffffffffffffffffffffffffffffffffffffffffffffffffffffffffff03821115620004fd57620004fc620005b4565b5b828201905092915050565b6000819050919050565b60005b838110156200053257808201518184015260208101905062000515565b8381111562000542576000848401525b50505050565b600060028204905060018216806200056157607f821691505b60208210811415620005785762000577620005e3565b5b50919050565b620005898262000655565b810181811067ffffffffffffffff82111715620005ab57620005aa62000612565b5b80604052505050565b7f4e487b7100000000000000000000000000000000000000000000000000000000600052601160045260246000fd5b7f4e487b7100000000000000000000000000000000000000000000000000000000600052602260045260246000fd5b7f4e487b7100000000000000000000000000000000000000000000000000000000600052604160045260246000fd5b600080fd5b600080fd5b600080fd5b600080fd5b6000601f19601f8301169050919050565b7f45524332303a206d696e7420746f20746865207a65726f206164647265737300600082015250565b61125f806200069f6000396000f3fe608060405234801561001057600080fd5b50600436106100a95760003560e01c80633950935111610071578063395093511461016857806370a082311461019857806395d89b41146101c8578063a457c2d7146101e6578063a9059cbb14610216578063dd62ed3e14610246576100a9565b806306fdde03146100ae578063095ea7b3146100cc57806318160ddd146100fc57806323b872dd1461011a578063313ce5671461014a575b600080fd5b6100b6610276565b6040516100c39190610d20565b60405180910390f35b6100e660048036038101906100e19190610b6a565b610308565b6040516100f39190610d05565b60405180910390f35b61010461032b565b6040516101119190610e22565b60405180910390f35b610134600480360381019061012f9190610b17565b610335565b6040516101419190610d05565b60405180910390f35b610152610364565b60405161015f9190610e3d565b60405180910390f35b610182600480360381019061017d9190610b6a565b61036d565b60405161018f9190610d05565b60405180910390f35b6101b260048036038101906101ad9190610aaa565b6103a4565b6040516101bf9190610e22565b60405180910390f35b6101d06103ec565b6040516101dd9190610d20565b60405180910390f35b61020060048036038101906101fb9190610b6a565b61047e565b60405161020d9190610d05565b60405180910390f35b610230600480360381019061022b9190610b6a565b6104f5565b60405161023d9190610d05565b60405180910390f35b610260600480360381019061025b9190610ad7565b610518565b60405161026d9190610e22565b60405180910390f35b60606003805461028590610f52565b80601f01602080910402602001604051908101604052809291908181526020018280546102b190610f52565b80156102fe5780601f106102d3576101008083540402835291602001916102fe565b820191906000526020600020905b8154815290600101906020018083116102e157829003601f168201915b5050505050905090565b60008061031361059f565b90506103208185856105a7565b600191505092915050565b6000600254905090565b60008061034061059f565b905061034d858285610772565b6103588585856107fe565b60019150509392505050565b60006012905090565b60008061037861059f565b905061039981858561038a8589610518565b6103949190610e74565b6105a7565b600191505092915050565b60008060008373ffffffffffffffffffffffffffffffffffffffff1673ffffffffffffffffffffffffffffffffffffffff168152602001908152602001600020549050919050565b6060600480546103fb90610f52565b80601f016020809104026020016040519081016040528092919081815260200182805461042790610f52565b80156104745780601f1061044957610100808354040283529160200191610474565b820191906000526020600020905b81548152906001019060200180831161045757829003601f168201915b5050505050905090565b60008061048961059f565b905060006104978286610518565b9050838110156104dc576040517f08c379a00000000000000000000000000000000000000000000000000000000081526004016104d390610e02565b60405180910390fd5b6104e982868684036105a7565b60019250505092915050565b60008061050061059f565b905061050d8185856107fe565b600191505092915050565b6000600160008473ffffffffffffffffffffffffffffffffffffffff1673ffffffffffffffffffffffffffffffffffffffff16815260200190815260200160002060008373ffffffffffffffffffffffffffffffffffffffff1673ffffffffffffffffffffffffffffffffffffffff16815260200190815260200160002054905092915050565b600033905090565b600073ffffffffffffffffffffffffffffffffffffffff168373ffffffffffffffffffffffffffffffffffffffff161415610617576040517f08c379a000000000000000000000000000000000000000000000000000000000815260040161060e90610de2565b60405180910390fd5b600073ffffffffffffffffffffffffffffffffffffffff168273ffffffffffffffffffffffffffffffffffffffff161415610687576040517f08c379a000000000000000000000000000000000000000000000000000000000815260040161067e90610d62565b60405180910390fd5b80600160008573ffffffffffffffffffffffffffffffffffffffff1673ffffffffffffffffffffffffffffffffffffffff16815260200190815260200160002060008473ffffffffffffffffffffffffffffffffffffffff1673ffffffffffffffffffffffffffffffffffffffff168152602001908152602001600020819055508173ffffffffffffffffffffffffffffffffffffffff168373ffffffffffffffffffffffffffffffffffffffff167f8c5be1e5ebec7d5bd14f71427d1e84f3dd0314c0f7b2291e5b200ac8c7c3b925836040516107659190610e22565b60405180910390a3505050565b600061077e8484610518565b90507fffffffffffffffffffffffffffffffffffffffffffffffffffffffffffffffff81146107f857818110156107ea576040517f08c379a00000000000000000000000000000000000000000000000000000000081526004016107e190610d82565b60405180910390fd5b6107f784848484036105a7565b5b50505050565b600073ffffffffffffffffffffffffffffffffffffffff168373ffffffffffffffffffffffffffffffffffffffff16141561086e576040517f08c379a000000000000000000000000000000000000000000000000000000000815260040161086590610dc2565b60405180910390fd5b600073ffffffffffffffffffffffffffffffffffffffff168273ffffffffffffffffffffffffffffffffffffffff1614156108de576040517f08c379a00000000000000000000000000000000000000000000000000000000081526004016108d590610d42565b60405180910390fd5b6108e9838383610a76565b60008060008573ffffffffffffffffffffffffffffffffffffffff1673ffffffffffffffffffffffffffffffffffffffff1681526020019081526020016000205490508181101561096f576040517f08c379a000000000000000000000000000000000000000000000000000000000815260040161096690610da2565b60405180910390fd5b8181036000808673ffffffffffffffffffffffffffffffffffffffff1673ffffffffffffffffffffffffffffffffffffffff16815260200190815260200160002081905550816000808573ffffffffffffffffffffffffffffffffffffffff1673ffffffffffffffffffffffffffffffffffffffff168152602001908152602001600020600082825401925050819055508273ffffffffffffffffffffffffffffffffffffffff168473ffffffffffffffffffffffffffffffffffffffff167fddf252ad1be2c89b69c2b068fc378daa952ba7f163c4a11628f55a4df523b3ef84604051610a5d9190610e22565b60405180910390a3610a70848484610a7b565b50505050565b505050565b505050565b600081359050610a8f816111fb565b92915050565b600081359050610aa481611212565b92915050565b600060208284031215610ac057610abf610fe2565b5b6000610ace84828501610a80565b91505092915050565b60008060408385031215610aee57610aed610fe2565b5b6000610afc85828601610a80565b9250506020610b0d85828601610a80565b9150509250929050565b600080600060608486031215610b3057610b2f610fe2565b5b6000610b3e86828701610a80565b9350506020610b4f86828701610a80565b9250506040610b6086828701610a95565b9150509250925092565b60008060408385031215610b8157610b80610fe2565b5b6000610b8f85828601610a80565b9250506020610ba085828601610a95565b9150509250929050565b610bb381610edc565b82525050565b6000610bc482610e58565b610bce8185610e63565b9350610bde818560208601610f1f565b610be781610fe7565b840191505092915050565b6000610bff602383610e63565b9150610c0a82610ff8565b604082019050919050565b6000610c22602283610e63565b9150610c2d82611047565b604082019050919050565b6000610c45601d83610e63565b9150610c5082611096565b602082019050919050565b6000610c68602683610e63565b9150610c73826110bf565b604082019050919050565b6000610c8b602583610e63565b9150610c968261110e565b604082019050919050565b6000610cae602483610e63565b9150610cb98261115d565b604082019050919050565b6000610cd1602583610e63565b9150610cdc826111ac565b604082019050919050565b610cf081610f08565b82525050565b610cff81610f12565b82525050565b6000602082019050610d1a6000830184610baa565b92915050565b60006020820190508181036000830152610d3a8184610bb9565b905092915050565b60006020820190508181036000830152610d5b81610bf2565b9050919050565b60006020820190508181036000830152610d7b81610c15565b9050919050565b60006020820190508181036000830152610d9b81610c38565b9050919050565b60006020820190508181036000830152610dbb81610c5b565b9050919050565b60006020820190508181036000830152610ddb81610c7e565b9050919050565b60006020820190508181036000830152610dfb81610ca1565b9050919050565b60006020820190508181036000830152610e1b81610cc4565b9050919050565b6000602082019050610e376000830184610ce7565b92915050565b6000602082019050610e526000830184610cf6565b92915050565b600081519050919050565b600082825260208201905092915050565b6000610e7f82610f08565b9150610e8a83610f08565b9250827fffffffffffffffffffffffffffffffffffffffffffffffffffffffffffffffff03821115610ebf57610ebe610f84565b5b828201905092915050565b6000610ed582610ee8565b9050919050565b60008115159050919050565b600073ffffffffffffffffffffffffffffffffffffffff82169050919050565b6000819050919050565b600060ff82169050919050565b60005b83811015610f3d578082015181840152602081019050610f22565b83811115610f4c576000848401525b50505050565b60006002820490506001821680610f6a57607f821691505b60208210811415610f7e57610f7d610fb3565b5b50919050565b7f4e487b7100000000000000000000000000000000000000000000000000000000600052601160045260246000fd5b7f4e487b7100000000000000000000000000000000000000000000000000000000600052602260045260246000fd5b600080fd5b6000601f19601f8301169050919050565b7f45524332303a207472616e7366657220746f20746865207a65726f206164647260008201527f6573730000000000000000000000000000000000000000000000000000000000602082015250565b7f45524332303a20617070726f766520746f20746865207a65726f20616464726560008201527f7373000000000000000000000000000000000000000000000000000000000000602082015250565b7f45524332303a20696e73756666696369656e7420616c6c6f77616e6365000000600082015250565b7f45524332303a207472616e7366657220616d6f756e742065786365656473206260008201527f616c616e63650000000000000000000000000000000000000000000000000000602082015250565b7f45524332303a207472616e736665722066726f6d20746865207a65726f20616460008201527f6472657373000000000000000000000000000000000000000000000000000000602082015250565b7f45524332303a20617070726f76652066726f6d20746865207a65726f2061646460008201527f7265737300000000000000000000000000000000000000000000000000000000602082015250565b7f45524332303a2064656372656173656420616c6c6f77616e63652062656c6f7760008201527f207a65726f000000000000000000000000000000000000000000000000000000602082015250565b61120481610eca565b811461120f57600080fd5b50565b61121b81610f08565b811461122657600080fd5b5056fea264697066735822122024c1073e01565e0c062e3ad4d5797d765dc97a9b182c6ae0bd46dbac465cd9be64736f6c63430008060033",
			"opcodes": "PUSH1 0x80 PUSH1 0x40 MSTORE PUSH1 0x40 MLOAD DUP1 PUSH1 0x60 ADD PUSH1 0x40 MSTORE DUP1 PUSH1 0x40 MLOAD DUP1 PUSH1 0x40 ADD PUSH1 0x40 MSTORE DUP1 PUSH1 0x5 DUP2 MSTORE PUSH1 0x20 ADD PUSH32 0x436F696E41000000000000000000000000000000000000000000000000000000 DUP2 MSTORE POP DUP2 MSTORE PUSH1 0x20 ADD PUSH1 0x40 MLOAD DUP1 PUSH1 0x40 ADD PUSH1 0x40 MSTORE DUP1 PUSH1 0x5 DUP2 MSTORE PUSH1 0x20 ADD PUSH32 0x436F696E42000000000000000000000000000000000000000000000000000000 DUP2 MSTORE POP DUP2 MSTORE PUSH1 0x20 ADD PUSH1 0x40 MLOAD DUP1 PUSH1 0x40 ADD PUSH1 0x40 MSTORE DUP1 PUSH1 0x5 DUP2 MSTORE PUSH1 0x20 ADD PUSH32 0x436F696E43000000000000000000000000000000000000000000000000000000 DUP2 MSTORE POP DUP2 MSTORE POP PUSH1 0x0 SWAP1 PUSH1 0x3 PUSH3 0xD0 SWAP3 SWAP2 SWAP1 PUSH3 0x215 JUMP JUMPDEST POP PUSH6 0x5AF3107A4000 PUSH1 0x2 SSTORE CALLVALUE DUP1 ISZERO PUSH3 0xE8 JUMPI PUSH1 0x0 DUP1 REVERT JUMPDEST POP PUSH1 0x0 JUMPDEST PUSH1 0x0 DUP1 SLOAD SWAP1 POP DUP2 LT ISZERO PUSH3 0x20E JUMPI PUSH1 0x0 DUP1 DUP3 DUP2 SLOAD DUP2 LT PUSH3 0x112 JUMPI PUSH3 0x111 PUSH3 0x630 JUMP JUMPDEST JUMPDEST SWAP1 PUSH1 0x0 MSTORE PUSH1 0x20 PUSH1 0x0 KECCAK256 ADD PUSH1 0x0 DUP4 DUP2 SLOAD DUP2 LT PUSH3 0x133 JUMPI PUSH3 0x132 PUSH3 0x630 JUMP JUMPDEST JUMPDEST SWAP1 PUSH1 0x0 MSTORE PUSH1 0x20 PUSH1 0x0 KECCAK256 ADD PUSH1 0x40 MLOAD PUSH3 0x14B SWAP1 PUSH3 0x27C JUMP JUMPDEST PUSH3 0x158 SWAP3 SWAP2 SWAP1 PUSH3 0x4D8 JUMP JUMPDEST PUSH1 0x40 MLOAD DUP1 SWAP2 SUB SWAP1 PUSH1 0x0 CREATE DUP1 ISZERO DUP1 ISZERO PUSH3 0x175 JUMPI RETURNDATASIZE PUSH1 0x0 DUP1 RETURNDATACOPY RETURNDATASIZE PUSH1 0x0 REVERT JUMPDEST POP SWAP1 POP DUP1 PUSH1 0x1 PUSH1 0x0 DUP5 DUP2 SLOAD DUP2 LT PUSH3 0x192 JUMPI PUSH3 0x191 PUSH3 0x630 JUMP JUMPDEST JUMPDEST SWAP1 PUSH1 0x0 MSTORE PUSH1 0x20 PUSH1 0x0 KECCAK256 ADD PUSH1 0x40 MLOAD PUSH3 0x1AB SWAP2 SWAP1 PUSH3 0x4BF JUMP JUMPDEST SWAP1 DUP2 MSTORE PUSH1 0x20 ADD PUSH1 0x40 MLOAD DUP1 SWAP2 SUB SWAP1 KECCAK256 PUSH1 0x0 PUSH2 0x100 EXP DUP2 SLOAD DUP2 PUSH20 0xFFFFFFFFFFFFFFFFFFFFFFFFFFFFFFFFFFFFFFFF MUL NOT AND SWAP1 DUP4 PUSH20 0xFFFFFFFFFFFFFFFFFFFFFFFFFFFFFFFFFFFFFFFF AND MUL OR SWAP1 SSTORE POP POP DUP1 DUP1 PUSH3 0x205 SWAP1 PUSH3 0x584 JUMP JUMPDEST SWAP2 POP POP PUSH3 0xEC JUMP JUMPDEST POP PUSH3 0x65F JUMP JUMPDEST DUP3 DUP1 SLOAD DUP3 DUP3 SSTORE SWAP1 PUSH1 0x0 MSTORE PUSH1 0x20 PUSH1 0x0 KECCAK256 SWAP1 DUP2 ADD SWAP3 DUP3 ISZERO PUSH3 0x269 JUMPI SWAP2 PUSH1 0x20 MUL DUP3 ADD JUMPDEST DUP3 DUP2 GT ISZERO PUSH3 0x268 JUMPI DUP3 MLOAD DUP3 SWAP1 DUP1 MLOAD SWAP1 PUSH1 0x20 ADD SWAP1 PUSH3 0x257 SWAP3 SWAP2 SWAP1 PUSH3 0x28A JUMP JUMPDEST POP SWAP2 PUSH1 0x20 ADD SWAP2 SWAP1 PUSH1 0x1 ADD SWAP1 PUSH3 0x236 JUMP JUMPDEST JUMPDEST POP SWAP1 POP PUSH3 0x278 SWAP2 SWAP1 PUSH3 0x31B JUMP JUMPDEST POP SWAP1 JUMP JUMPDEST PUSH2 0x18FE DUP1 PUSH3 0x1D04 DUP4 CODECOPY ADD SWAP1 JUMP JUMPDEST DUP3 DUP1 SLOAD PUSH3 0x298 SWAP1 PUSH3 0x54E JUMP JUMPDEST SWAP1 PUSH1 0x0 MSTORE PUSH1 0x20 PUSH1 0x0 KECCAK256 SWAP1 PUSH1 0x1F ADD PUSH1 0x20 SWAP1 DIV DUP2 ADD SWAP3 DUP3 PUSH3 0x2BC JUMPI PUSH1 0x0 DUP6 SSTORE PUSH3 0x308 JUMP JUMPDEST DUP3 PUSH1 0x1F LT PUSH3 0x2D7 JUMPI DUP1 MLOAD PUSH1 0xFF NOT AND DUP4 DUP1 ADD OR DUP6 SSTORE PUSH3 0x308 JUMP JUMPDEST DUP3 DUP1 ADD PUSH1 0x1 ADD DUP6 SSTORE DUP3 ISZERO PUSH3 0x308 JUMPI SWAP2 DUP3 ADD JUMPDEST DUP3 DUP2 GT ISZERO PUSH3 0x307 JUMPI DUP3 MLOAD DUP3 SSTORE SWAP2 PUSH1 0x20 ADD SWAP2 SWAP1 PUSH1 0x1 ADD SWAP1 PUSH3 0x2EA JUMP JUMPDEST JUMPDEST POP SWAP1 POP PUSH3 0x317 SWAP2 SWAP1 PUSH3 0x343 JUMP JUMPDEST POP SWAP1 JUMP JUMPDEST JUMPDEST DUP1 DUP3 GT ISZERO PUSH3 0x33F JUMPI PUSH1 0x0 DUP2 DUP2 PUSH3 0x335 SWAP2 SWAP1 PUSH3 0x362 JUMP JUMPDEST POP PUSH1 0x1 ADD PUSH3 0x31C JUMP JUMPDEST POP SWAP1 JUMP JUMPDEST JUMPDEST DUP1 DUP3 GT ISZERO PUSH3 0x35E JUMPI PUSH1 0x0 DUP2 PUSH1 0x0 SWAP1 SSTORE POP PUSH1 0x1 ADD PUSH3 0x344 JUMP JUMPDEST POP SWAP1 JUMP JUMPDEST POP DUP1 SLOAD PUSH3 0x370 SWAP1 PUSH3 0x54E JUMP JUMPDEST PUSH1 0x0 DUP3 SSTORE DUP1 PUSH1 0x1F LT PUSH3 0x384 JUMPI POP PUSH3 0x3A5 JUMP JUMPDEST PUSH1 0x1F ADD PUSH1 0x20 SWAP1 DIV SWAP1 PUSH1 0x0 MSTORE PUSH1 0x20 PUSH1 0x0 KECCAK256 SWAP1 DUP2 ADD SWAP1 PUSH3 0x3A4 SWAP2 SWAP1 PUSH3 0x343 JUMP JUMPDEST JUMPDEST POP JUMP JUMPDEST PUSH1 0x0 DUP2 SLOAD PUSH3 0x3B7 DUP2 PUSH3 0x54E JUMP JUMPDEST PUSH3 0x3C3 DUP2 DUP7 PUSH3 0x528 JUMP JUMPDEST SWAP5 POP PUSH1 0x1 DUP3 AND PUSH1 0x0 DUP2 EQ PUSH3 0x3E1 JUMPI PUSH1 0x1 DUP2 EQ PUSH3 0x3F4 JUMPI PUSH3 0x42B JUMP JUMPDEST PUSH1 0xFF NOT DUP4 AND DUP7 MSTORE PUSH1 0x20 DUP7 ADD SWAP4 POP PUSH3 0x42B JUMP JUMPDEST PUSH3 0x3FF DUP6 PUSH3 0x513 JUMP JUMPDEST PUSH1 0x0 JUMPDEST DUP4 DUP2 LT ISZERO PUSH3 0x423 JUMPI DUP2 SLOAD DUP2 DUP10 ADD MSTORE PUSH1 0x1 DUP3 ADD SWAP2 POP PUSH1 0x20 DUP2 ADD SWAP1 POP PUSH3 0x402 JUMP JUMPDEST DUP1 DUP9 ADD SWAP6 POP POP POP JUMPDEST POP POP POP SWAP3 SWAP2 POP POP JUMP JUMPDEST PUSH1 0x0 DUP2 SLOAD PUSH3 0x443 DUP2 PUSH3 0x54E JUMP JUMPDEST PUSH3 0x44F DUP2 DUP7 PUSH3 0x539 JUMP JUMPDEST SWAP5 POP PUSH1 0x1 DUP3 AND PUSH1 0x0 DUP2 EQ PUSH3 0x46D JUMPI PUSH1 0x1 DUP2 EQ PUSH3 0x47F JUMPI PUSH3 0x4B6 JUMP JUMPDEST PUSH1 0xFF NOT DUP4 AND DUP7 MSTORE DUP2 DUP7 ADD SWAP4 POP PUSH3 0x4B6 JUMP JUMPDEST PUSH3 0x48A DUP6 PUSH3 0x513 JUMP JUMPDEST PUSH1 0x0 JUMPDEST DUP4 DUP2 LT ISZERO PUSH3 0x4AE JUMPI DUP2 SLOAD DUP2 DUP10 ADD MSTORE PUSH1 0x1 DUP3 ADD SWAP2 POP PUSH1 0x20 DUP2 ADD SWAP1 POP PUSH3 0x48D JUMP JUMPDEST DUP4 DUP9 ADD SWAP6 POP POP POP JUMPDEST POP POP POP SWAP3 SWAP2 POP POP JUMP JUMPDEST PUSH1 0x0 PUSH3 0x4CD DUP3 DUP5 PUSH3 0x434 JUMP JUMPDEST SWAP2 POP DUP2 SWAP1 POP SWAP3 SWAP2 POP POP JUMP JUMPDEST PUSH1 0x0 PUSH1 0x40 DUP3 ADD SWAP1 POP DUP2 DUP2 SUB PUSH1 0x0 DUP4 ADD MSTORE PUSH3 0x4F4 DUP2 DUP6 PUSH3 0x3A8 JUMP JUMPDEST SWAP1 POP DUP2 DUP2 SUB PUSH1 0x20 DUP4 ADD MSTORE PUSH3 0x50A DUP2 DUP5 PUSH3 0x3A8 JUMP JUMPDEST SWAP1 POP SWAP4 SWAP3 POP POP POP JUMP JUMPDEST PUSH1 0x0 DUP2 SWAP1 POP DUP2 PUSH1 0x0 MSTORE PUSH1 0x20 PUSH1 0x0 KECCAK256 SWAP1 POP SWAP2 SWAP1 POP JUMP JUMPDEST PUSH1 0x0 DUP3 DUP3 MSTORE PUSH1 0x20 DUP3 ADD SWAP1 POP SWAP3 SWAP2 POP POP JUMP JUMPDEST PUSH1 0x0 DUP2 SWAP1 POP SWAP3 SWAP2 POP POP JUMP JUMPDEST PUSH1 0x0 DUP2 SWAP1 POP SWAP2 SWAP1 POP JUMP JUMPDEST PUSH1 0x0 PUSH1 0x2 DUP3 DIV SWAP1 POP PUSH1 0x1 DUP3 AND DUP1 PUSH3 0x567 JUMPI PUSH1 0x7F DUP3 AND SWAP2 POP JUMPDEST PUSH1 0x20 DUP3 LT DUP2 EQ ISZERO PUSH3 0x57E JUMPI PUSH3 0x57D PUSH3 0x601 JUMP JUMPDEST JUMPDEST POP SWAP2 SWAP1 POP JUMP JUMPDEST PUSH1 0x0 PUSH3 0x591 DUP3 PUSH3 0x544 JUMP JUMPDEST SWAP2 POP PUSH32 0xFFFFFFFFFFFFFFFFFFFFFFFFFFFFFFFFFFFFFFFFFFFFFFFFFFFFFFFFFFFFFFFF DUP3 EQ ISZERO PUSH3 0x5C7 JUMPI PUSH3 0x5C6 PUSH3 0x5D2 JUMP JUMPDEST JUMPDEST PUSH1 0x1 DUP3 ADD SWAP1 POP SWAP2 SWAP1 POP JUMP JUMPDEST PUSH32 0x4E487B7100000000000000000000000000000000000000000000000000000000 PUSH1 0x0 MSTORE PUSH1 0x11 PUSH1 0x4 MSTORE PUSH1 0x24 PUSH1 0x0 REVERT JUMPDEST PUSH32 0x4E487B7100000000000000000000000000000000000000000000000000000000 PUSH1 0x0 MSTORE PUSH1 0x22 PUSH1 0x4 MSTORE PUSH1 0x24 PUSH1 0x0 REVERT JUMPDEST PUSH32 0x4E487B7100000000000000000000000000000000000000000000000000000000 PUSH1 0x0 MSTORE PUSH1 0x32 PUSH1 0x4 MSTORE PUSH1 0x24 PUSH1 0x0 REVERT JUMPDEST PUSH2 0x1695 DUP1 PUSH3 0x66F PUSH1 0x0 CODECOPY PUSH1 0x0 RETURN INVALID PUSH1 0x80 PUSH1 0x40 MSTORE PUSH1 0x4 CALLDATASIZE LT PUSH2 0x91 JUMPI PUSH1 0x0 CALLDATALOAD PUSH1 0xE0 SHR DUP1 PUSH4 0x89F4B317 GT PUSH2 0x59 JUMPI DUP1 PUSH4 0x89F4B317 EQ PUSH2 0x1A8 JUMPI DUP1 PUSH4 0xA93325ED EQ PUSH2 0x1E5 JUMPI DUP1 PUSH4 0xBF015AAE EQ PUSH2 0x222 JUMPI DUP1 PUSH4 0xC4091236 EQ PUSH2 0x24B JUMPI DUP1 PUSH4 0xDB6F63EE EQ PUSH2 0x288 JUMPI PUSH2 0x91 JUMP JUMPDEST DUP1 PUSH4 0x4F64B2BE EQ PUSH2 0x96 JUMPI DUP1 PUSH4 0x5463109E EQ PUSH2 0xD3 JUMPI DUP1 PUSH4 0x63FCF7C5 EQ PUSH2 0x110 JUMPI DUP1 PUSH4 0x6932CF81 EQ PUSH2 0x140 JUMPI DUP1 PUSH4 0x70ED0ADA EQ PUSH2 0x17D JUMPI JUMPDEST PUSH1 0x0 DUP1 REVERT JUMPDEST CALLVALUE DUP1 ISZERO PUSH2 0xA2 JUMPI PUSH1 0x0 DUP1 REVERT JUMPDEST POP PUSH2 0xBD PUSH1 0x4 DUP1 CALLDATASIZE SUB DUP2 ADD SWAP1 PUSH2 0xB8 SWAP2 SWAP1 PUSH2 0xF0A JUMP JUMPDEST PUSH2 0x2C5 JUMP JUMPDEST PUSH1 0x40 MLOAD PUSH2 0xCA SWAP2 SWAP1 PUSH2 0x10F8 JUMP JUMPDEST PUSH1 0x40 MLOAD DUP1 SWAP2 SUB SWAP1 RETURN JUMPDEST CALLVALUE DUP1 ISZERO PUSH2 0xDF JUMPI PUSH1 0x0 DUP1 REVERT JUMPDEST POP PUSH2 0xFA PUSH1 0x4 DUP1 CALLDATASIZE SUB DUP2 ADD SWAP1 PUSH2 0xF5 SWAP2 SWAP1 PUSH2 0xD35 JUMP JUMPDEST PUSH2 0x371 JUMP JUMPDEST PUSH1 0x40 MLOAD PUSH2 0x107 SWAP2 SWAP1 PUSH2 0x113A JUMP JUMPDEST PUSH1 0x40 MLOAD DUP1 SWAP2 SUB SWAP1 RETURN JUMPDEST PUSH2 0x12A PUSH1 0x4 DUP1 CALLDATASIZE SUB DUP2 ADD SWAP1 PUSH2 0x125 SWAP2 SWAP1 PUSH2 0xD35 JUMP JUMPDEST PUSH2 0x436 JUMP JUMPDEST PUSH1 0x40 MLOAD PUSH2 0x137 SWAP2 SWAP1 PUSH2 0x113A JUMP JUMPDEST PUSH1 0x40 MLOAD DUP1 SWAP2 SUB SWAP1 RETURN JUMPDEST CALLVALUE DUP1 ISZERO PUSH2 0x14C JUMPI PUSH1 0x0 DUP1 REVERT JUMPDEST POP PUSH2 0x167 PUSH1 0x4 DUP1 CALLDATASIZE SUB DUP2 ADD SWAP1 PUSH2 0x162 SWAP2 SWAP1 PUSH2 0xD35 JUMP JUMPDEST PUSH2 0x60C JUMP JUMPDEST PUSH1 0x40 MLOAD PUSH2 0x174 SWAP2 SWAP1 PUSH2 0x10F8 JUMP JUMPDEST PUSH1 0x40 MLOAD DUP1 SWAP2 SUB SWAP1 RETURN JUMPDEST CALLVALUE DUP1 ISZERO PUSH2 0x189 JUMPI PUSH1 0x0 DUP1 REVERT JUMPDEST POP PUSH2 0x192 PUSH2 0x6D6 JUMP JUMPDEST PUSH1 0x40 MLOAD PUSH2 0x19F SWAP2 SWAP1 PUSH2 0x113A JUMP JUMPDEST PUSH1 0x40 MLOAD DUP1 SWAP2 SUB SWAP1 RETURN JUMPDEST CALLVALUE DUP1 ISZERO PUSH2 0x1B4 JUMPI PUSH1 0x0 DUP1 REVERT JUMPDEST POP PUSH2 0x1CF PUSH1 0x4 DUP1 CALLDATASIZE SUB DUP2 ADD SWAP1 PUSH2 0x1CA SWAP2 SWAP1 PUSH2 0xDC7 JUMP JUMPDEST PUSH2 0x6DE JUMP JUMPDEST PUSH1 0x40 MLOAD PUSH2 0x1DC SWAP2 SWAP1 PUSH2 0x113A JUMP JUMPDEST PUSH1 0x40 MLOAD DUP1 SWAP2 SUB SWAP1 RETURN JUMPDEST CALLVALUE DUP1 ISZERO PUSH2 0x1F1 JUMPI PUSH1 0x0 DUP1 REVERT JUMPDEST POP PUSH2 0x20C PUSH1 0x4 DUP1 CALLDATASIZE SUB DUP2 ADD SWAP1 PUSH2 0x207 SWAP2 SWAP1 PUSH2 0xD35 JUMP JUMPDEST PUSH2 0x7AF JUMP JUMPDEST PUSH1 0x40 MLOAD PUSH2 0x219 SWAP2 SWAP1 PUSH2 0x10DD JUMP JUMPDEST PUSH1 0x40 MLOAD DUP1 SWAP2 SUB SWAP1 RETURN JUMPDEST CALLVALUE DUP1 ISZERO PUSH2 0x22E JUMPI PUSH1 0x0 DUP1 REVERT JUMPDEST POP PUSH2 0x249 PUSH1 0x4 DUP1 CALLDATASIZE SUB DUP2 ADD SWAP1 PUSH2 0x244 SWAP2 SWAP1 PUSH2 0xE23 JUMP JUMPDEST PUSH2 0x7F8 JUMP JUMPDEST STOP JUMPDEST CALLVALUE DUP1 ISZERO PUSH2 0x257 JUMPI PUSH1 0x0 DUP1 REVERT JUMPDEST POP PUSH2 0x272 PUSH1 0x4 DUP1 CALLDATASIZE SUB DUP2 ADD SWAP1 PUSH2 0x26D SWAP2 SWAP1 PUSH2 0xD35 JUMP JUMPDEST PUSH2 0x9A7 JUMP JUMPDEST PUSH1 0x40 MLOAD PUSH2 0x27F SWAP2 SWAP1 PUSH2 0x1062 JUMP JUMPDEST PUSH1 0x40 MLOAD DUP1 SWAP2 SUB SWAP1 RETURN JUMPDEST CALLVALUE DUP1 ISZERO PUSH2 0x294 JUMPI PUSH1 0x0 DUP1 REVERT JUMPDEST POP PUSH2 0x2AF PUSH1 0x4 DUP1 CALLDATASIZE SUB DUP2 ADD SWAP1 PUSH2 0x2AA SWAP2 SWAP1 PUSH2 0xEAE JUMP JUMPDEST PUSH2 0x9EF JUMP JUMPDEST PUSH1 0x40 MLOAD PUSH2 0x2BC SWAP2 SWAP1 PUSH2 0x113A JUMP JUMPDEST PUSH1 0x40 MLOAD DUP1 SWAP2 SUB SWAP1 RETURN JUMPDEST PUSH1 0x0 DUP2 DUP2 SLOAD DUP2 LT PUSH2 0x2D5 JUMPI PUSH1 0x0 DUP1 REVERT JUMPDEST SWAP1 PUSH1 0x0 MSTORE PUSH1 0x20 PUSH1 0x0 KECCAK256 ADD PUSH1 0x0 SWAP2 POP SWAP1 POP DUP1 SLOAD PUSH2 0x2F0 SWAP1 PUSH2 0x1489 JUMP JUMPDEST DUP1 PUSH1 0x1F ADD PUSH1 0x20 DUP1 SWAP2 DIV MUL PUSH1 0x20 ADD PUSH1 0x40 MLOAD SWAP1 DUP2 ADD PUSH1 0x40 MSTORE DUP1 SWAP3 SWAP2 SWAP1 DUP2 DUP2 MSTORE PUSH1 0x20 ADD DUP3 DUP1 SLOAD PUSH2 0x31C SWAP1 PUSH2 0x1489 JUMP JUMPDEST DUP1 ISZERO PUSH2 0x369 JUMPI DUP1 PUSH1 0x1F LT PUSH2 0x33E JUMPI PUSH2 0x100 DUP1 DUP4 SLOAD DIV MUL DUP4 MSTORE SWAP2 PUSH1 0x20 ADD SWAP2 PUSH2 0x369 JUMP JUMPDEST DUP3 ADD SWAP2 SWAP1 PUSH1 0x0 MSTORE PUSH1 0x20 PUSH1 0x0 KECCAK256 SWAP1 JUMPDEST DUP2 SLOAD DUP2 MSTORE SWAP1 PUSH1 0x1 ADD SWAP1 PUSH1 0x20 ADD DUP1 DUP4 GT PUSH2 0x34C JUMPI DUP3 SWAP1 SUB PUSH1 0x1F AND DUP3 ADD SWAP2 JUMPDEST POP POP POP POP POP DUP2 JUMP JUMPDEST PUSH1 0x0 PUSH1 0x1 DUP3 PUSH1 0x40 MLOAD PUSH2 0x383 SWAP2 SWAP1 PUSH2 0x104B JUMP JUMPDEST SWAP1 DUP2 MSTORE PUSH1 0x20 ADD PUSH1 0x40 MLOAD DUP1 SWAP2 SUB SWAP1 KECCAK256 PUSH1 0x0 SWAP1 SLOAD SWAP1 PUSH2 0x100 EXP SWAP1 DIV PUSH20 0xFFFFFFFFFFFFFFFFFFFFFFFFFFFFFFFFFFFFFFFF AND PUSH20 0xFFFFFFFFFFFFFFFFFFFFFFFFFFFFFFFFFFFFFFFF AND PUSH4 0x18160DDD PUSH1 0x40 MLOAD DUP2 PUSH4 0xFFFFFFFF AND PUSH1 0xE0 SHL DUP2 MSTORE PUSH1 0x4 ADD PUSH1 0x20 PUSH1 0x40 MLOAD DUP1 DUP4 SUB DUP2 DUP7 DUP1 EXTCODESIZE ISZERO DUP1 ISZERO PUSH2 0x3F7 JUMPI PUSH1 0x0 DUP1 REVERT JUMPDEST POP GAS STATICCALL ISZERO DUP1 ISZERO PUSH2 0x40B JUMPI RETURNDATASIZE PUSH1 0x0 DUP1 RETURNDATACOPY RETURNDATASIZE PUSH1 0x0 REVERT JUMPDEST POP POP POP POP PUSH1 0x40 MLOAD RETURNDATASIZE PUSH1 0x1F NOT PUSH1 0x1F DUP3 ADD AND DUP3 ADD DUP1 PUSH1 0x40 MSTORE POP DUP2 ADD SWAP1 PUSH2 0x42F SWAP2 SWAP1 PUSH2 0xF37 JUMP JUMPDEST SWAP1 POP SWAP2 SWAP1 POP JUMP JUMPDEST PUSH1 0x0 DUP1 CALLVALUE SWAP1 POP PUSH1 0x0 PUSH2 0x52C PUSH1 0x1 DUP6 PUSH1 0x40 MLOAD PUSH2 0x451 SWAP2 SWAP1 PUSH2 0x104B JUMP JUMPDEST SWAP1 DUP2 MSTORE PUSH1 0x20 ADD PUSH1 0x40 MLOAD DUP1 SWAP2 SUB SWAP1 KECCAK256 PUSH1 0x0 SWAP1 SLOAD SWAP1 PUSH2 0x100 EXP SWAP1 DIV PUSH20 0xFFFFFFFFFFFFFFFFFFFFFFFFFFFFFFFFFFFFFFFF AND PUSH20 0xFFFFFFFFFFFFFFFFFFFFFFFFFFFFFFFFFFFFFFFF AND PUSH4 0x313CE567 PUSH1 0x40 MLOAD DUP2 PUSH4 0xFFFFFFFF AND PUSH1 0xE0 SHL DUP2 MSTORE PUSH1 0x4 ADD PUSH1 0x20 PUSH1 0x40 MLOAD DUP1 DUP4 SUB DUP2 DUP7 DUP1 EXTCODESIZE ISZERO DUP1 ISZERO PUSH2 0x4C5 JUMPI PUSH1 0x0 DUP1 REVERT JUMPDEST POP GAS STATICCALL ISZERO DUP1 ISZERO PUSH2 0x4D9 JUMPI RETURNDATASIZE PUSH1 0x0 DUP1 RETURNDATACOPY RETURNDATASIZE PUSH1 0x0 REVERT JUMPDEST POP POP POP POP PUSH1 0x40 MLOAD RETURNDATASIZE PUSH1 0x1F NOT PUSH1 0x1F DUP3 ADD AND DUP3 ADD DUP1 PUSH1 0x40 MSTORE POP DUP2 ADD SWAP1 PUSH2 0x4FD SWAP2 SWAP1 PUSH2 0xF64 JUMP JUMPDEST PUSH1 0xA PUSH2 0x509 SWAP2 SWAP1 PUSH2 0x1256 JUMP JUMPDEST PUSH2 0x51E PUSH1 0x2 SLOAD DUP6 PUSH2 0xB93 SWAP1 SWAP2 SWAP1 PUSH4 0xFFFFFFFF AND JUMP JUMPDEST PUSH2 0xBA9 SWAP1 SWAP2 SWAP1 PUSH4 0xFFFFFFFF AND JUMP JUMPDEST SWAP1 POP PUSH1 0x1 DUP5 PUSH1 0x40 MLOAD PUSH2 0x53E SWAP2 SWAP1 PUSH2 0x104B JUMP JUMPDEST SWAP1 DUP2 MSTORE PUSH1 0x20 ADD PUSH1 0x40 MLOAD DUP1 SWAP2 SUB SWAP1 KECCAK256 PUSH1 0x0 SWAP1 SLOAD SWAP1 PUSH2 0x100 EXP SWAP1 DIV PUSH20 0xFFFFFFFFFFFFFFFFFFFFFFFFFFFFFFFFFFFFFFFF AND PUSH20 0xFFFFFFFFFFFFFFFFFFFFFFFFFFFFFFFFFFFFFFFF AND PUSH4 0xA9059CBB CALLER DUP4 PUSH1 0x40 MLOAD DUP4 PUSH4 0xFFFFFFFF AND PUSH1 0xE0 SHL DUP2 MSTORE PUSH1 0x4 ADD PUSH2 0x5A7 SWAP3 SWAP2 SWAP1 PUSH2 0x10B4 JUMP JUMPDEST PUSH1 0x20 PUSH1 0x40 MLOAD DUP1 DUP4 SUB DUP2 PUSH1 0x0 DUP8 DUP1 EXTCODESIZE ISZERO DUP1 ISZERO PUSH2 0x5C1 JUMPI PUSH1 0x0 DUP1 REVERT JUMPDEST POP GAS CALL ISZERO DUP1 ISZERO PUSH2 0x5D5 JUMPI RETURNDATASIZE PUSH1 0x0 DUP1 RETURNDATACOPY RETURNDATASIZE PUSH1 0x0 REVERT JUMPDEST POP POP POP POP PUSH1 0x40 MLOAD RETURNDATASIZE PUSH1 0x1F NOT PUSH1 0x1F DUP3 ADD AND DUP3 ADD DUP1 PUSH1 0x40 MSTORE POP DUP2 ADD SWAP1 PUSH2 0x5F9 SWAP2 SWAP1 PUSH2 0xD08 JUMP JUMPDEST PUSH2 0x602 JUMPI PUSH1 0x0 DUP1 REVERT JUMPDEST DUP1 SWAP3 POP POP POP SWAP2 SWAP1 POP JUMP JUMPDEST PUSH1 0x60 PUSH1 0x1 DUP3 PUSH1 0x40 MLOAD PUSH2 0x61E SWAP2 SWAP1 PUSH2 0x104B JUMP JUMPDEST SWAP1 DUP2 MSTORE PUSH1 0x20 ADD PUSH1 0x40 MLOAD DUP1 SWAP2 SUB SWAP1 KECCAK256 PUSH1 0x0 SWAP1 SLOAD SWAP1 PUSH2 0x100 EXP SWAP1 DIV PUSH20 0xFFFFFFFFFFFFFFFFFFFFFFFFFFFFFFFFFFFFFFFF AND PUSH20 0xFFFFFFFFFFFFFFFFFFFFFFFFFFFFFFFFFFFFFFFF AND PUSH4 0x6FDDE03 PUSH1 0x40 MLOAD DUP2 PUSH4 0xFFFFFFFF AND PUSH1 0xE0 SHL DUP2 MSTORE PUSH1 0x4 ADD PUSH1 0x0 PUSH1 0x40 MLOAD DUP1 DUP4 SUB DUP2 DUP7 DUP1 EXTCODESIZE ISZERO DUP1 ISZERO PUSH2 0x692 JUMPI PUSH1 0x0 DUP1 REVERT JUMPDEST POP GAS STATICCALL ISZERO DUP1 ISZERO PUSH2 0x6A6 JUMPI RETURNDATASIZE PUSH1 0x0 DUP1 RETURNDATACOPY RETURNDATASIZE PUSH1 0x0 REVERT JUMPDEST POP POP POP POP PUSH1 0x40 MLOAD RETURNDATASIZE PUSH1 0x0 DUP3 RETURNDATACOPY RETURNDATASIZE PUSH1 0x1F NOT PUSH1 0x1F DUP3 ADD AND DUP3 ADD DUP1 PUSH1 0x40 MSTORE POP DUP2 ADD SWAP1 PUSH2 0x6CF SWAP2 SWAP1 PUSH2 0xD7E JUMP JUMPDEST SWAP1 POP SWAP2 SWAP1 POP JUMP JUMPDEST PUSH1 0x0 SELFBALANCE SWAP1 POP SWAP1 JUMP JUMPDEST PUSH1 0x0 PUSH1 0x1 DUP4 PUSH1 0x40 MLOAD PUSH2 0x6F0 SWAP2 SWAP1 PUSH2 0x104B JUMP JUMPDEST SWAP1 DUP2 MSTORE PUSH1 0x20 ADD PUSH1 0x40 MLOAD DUP1 SWAP2 SUB SWAP1 KECCAK256 PUSH1 0x0 SWAP1 SLOAD SWAP1 PUSH2 0x100 EXP SWAP1 DIV PUSH20 0xFFFFFFFFFFFFFFFFFFFFFFFFFFFFFFFFFFFFFFFF AND PUSH20 0xFFFFFFFFFFFFFFFFFFFFFFFFFFFFFFFFFFFFFFFF AND PUSH4 0x70A08231 DUP4 PUSH1 0x40 MLOAD DUP3 PUSH4 0xFFFFFFFF AND PUSH1 0xE0 SHL DUP2 MSTORE PUSH1 0x4 ADD PUSH2 0x757 SWAP2 SWAP1 PUSH2 0x1062 JUMP JUMPDEST PUSH1 0x20 PUSH1 0x40 MLOAD DUP1 DUP4 SUB DUP2 DUP7 DUP1 EXTCODESIZE ISZERO DUP1 ISZERO PUSH2 0x76F JUMPI PUSH1 0x0 DUP1 REVERT JUMPDEST POP GAS STATICCALL ISZERO DUP1 ISZERO PUSH2 0x783 JUMPI RETURNDATASIZE PUSH1 0x0 DUP1 RETURNDATACOPY RETURNDATASIZE PUSH1 0x0 REVERT JUMPDEST POP POP POP POP PUSH1 0x40 MLOAD RETURNDATASIZE PUSH1 0x1F NOT PUSH1 0x1F DUP3 ADD AND DUP3 ADD DUP1 PUSH1 0x40 MSTORE POP DUP2 ADD SWAP1 PUSH2 0x7A7 SWAP2 SWAP1 PUSH2 0xF37 JUMP JUMPDEST SWAP1 POP SWAP3 SWAP2 POP POP JUMP JUMPDEST PUSH1 0x1 DUP2 DUP1 MLOAD PUSH1 0x20 DUP2 ADD DUP3 ADD DUP1 MLOAD DUP5 DUP3 MSTORE PUSH1 0x20 DUP4 ADD PUSH1 0x20 DUP6 ADD KECCAK256 DUP2 DUP4 MSTORE DUP1 SWAP6 POP POP POP POP POP POP PUSH1 0x0 SWAP2 POP SLOAD SWAP1 PUSH2 0x100 EXP SWAP1 DIV PUSH20 0xFFFFFFFFFFFFFFFFFFFFFFFFFFFFFFFFFFFFFFFF AND DUP2 JUMP JUMPDEST PUSH1 0x1 DUP4 PUSH1 0x40 MLOAD PUSH2 0x808 SWAP2 SWAP1 PUSH2 0x104B JUMP JUMPDEST SWAP1 DUP2 MSTORE PUSH1 0x20 ADD PUSH1 0x40 MLOAD DUP1 SWAP2 SUB SWAP1 KECCAK256 PUSH1 0x0 SWAP1 SLOAD SWAP1 PUSH2 0x100 EXP SWAP1 DIV PUSH20 0xFFFFFFFFFFFFFFFFFFFFFFFFFFFFFFFFFFFFFFFF AND PUSH20 0xFFFFFFFFFFFFFFFFFFFFFFFFFFFFFFFFFFFFFFFF AND PUSH4 0x23B872DD CALLER ADDRESS DUP5 PUSH1 0x40 MLOAD DUP5 PUSH4 0xFFFFFFFF AND PUSH1 0xE0 SHL DUP2 MSTORE PUSH1 0x4 ADD PUSH2 0x873 SWAP4 SWAP3 SWAP2 SWAP1 PUSH2 0x107D JUMP JUMPDEST PUSH1 0x20 PUSH1 0x40 MLOAD DUP1 DUP4 SUB DUP2 PUSH1 0x0 DUP8 DUP1 EXTCODESIZE ISZERO DUP1 ISZERO PUSH2 0x88D JUMPI PUSH1 0x0 DUP1 REVERT JUMPDEST POP GAS CALL ISZERO DUP1 ISZERO PUSH2 0x8A1 JUMPI RETURNDATASIZE PUSH1 0x0 DUP1 RETURNDATACOPY RETURNDATASIZE PUSH1 0x0 REVERT JUMPDEST POP POP POP POP PUSH1 0x40 MLOAD RETURNDATASIZE PUSH1 0x1F NOT PUSH1 0x1F DUP3 ADD AND DUP3 ADD DUP1 PUSH1 0x40 MSTORE POP DUP2 ADD SWAP1 PUSH2 0x8C5 SWAP2 SWAP1 PUSH2 0xD08 JUMP JUMPDEST PUSH2 0x8CE JUMPI PUSH1 0x0 DUP1 REVERT JUMPDEST PUSH1 0x1 DUP3 PUSH1 0x40 MLOAD PUSH2 0x8DE SWAP2 SWAP1 PUSH2 0x104B JUMP JUMPDEST SWAP1 DUP2 MSTORE PUSH1 0x20 ADD PUSH1 0x40 MLOAD DUP1 SWAP2 SUB SWAP1 KECCAK256 PUSH1 0x0 SWAP1 SLOAD SWAP1 PUSH2 0x100 EXP SWAP1 DIV PUSH20 0xFFFFFFFFFFFFFFFFFFFFFFFFFFFFFFFFFFFFFFFF AND PUSH20 0xFFFFFFFFFFFFFFFFFFFFFFFFFFFFFFFFFFFFFFFF AND PUSH4 0xA9059CBB CALLER DUP4 PUSH1 0x40 MLOAD DUP4 PUSH4 0xFFFFFFFF AND PUSH1 0xE0 SHL DUP2 MSTORE PUSH1 0x4 ADD PUSH2 0x947 SWAP3 SWAP2 SWAP1 PUSH2 0x10B4 JUMP JUMPDEST PUSH1 0x20 PUSH1 0x40 MLOAD DUP1 DUP4 SUB DUP2 PUSH1 0x0 DUP8 DUP1 EXTCODESIZE ISZERO DUP1 ISZERO PUSH2 0x961 JUMPI PUSH1 0x0 DUP1 REVERT JUMPDEST POP GAS CALL ISZERO DUP1 ISZERO PUSH2 0x975 JUMPI RETURNDATASIZE PUSH1 0x0 DUP1 RETURNDATACOPY RETURNDATASIZE PUSH1 0x0 REVERT JUMPDEST POP POP POP POP PUSH1 0x40 MLOAD RETURNDATASIZE PUSH1 0x1F NOT PUSH1 0x1F DUP3 ADD AND DUP3 ADD DUP1 PUSH1 0x40 MSTORE POP DUP2 ADD SWAP1 PUSH2 0x999 SWAP2 SWAP1 PUSH2 0xD08 JUMP JUMPDEST PUSH2 0x9A2 JUMPI PUSH1 0x0 DUP1 REVERT JUMPDEST POP POP POP JUMP JUMPDEST PUSH1 0x0 PUSH1 0x1 DUP3 PUSH1 0x40 MLOAD PUSH2 0x9B9 SWAP2 SWAP1 PUSH2 0x104B JUMP JUMPDEST SWAP1 DUP2 MSTORE PUSH1 0x20 ADD PUSH1 0x40 MLOAD DUP1 SWAP2 SUB SWAP1 KECCAK256 PUSH1 0x0 SWAP1 SLOAD SWAP1 PUSH2 0x100 EXP SWAP1 DIV PUSH20 0xFFFFFFFFFFFFFFFFFFFFFFFFFFFFFFFFFFFFFFFF AND SWAP1 POP SWAP2 SWAP1 POP JUMP JUMPDEST PUSH1 0x0 DUP1 PUSH2 0xA0D PUSH8 0xDE0B6B3A7640000 DUP5 PUSH2 0xB93 SWAP1 SWAP2 SWAP1 PUSH4 0xFFFFFFFF AND JUMP JUMPDEST SWAP1 POP PUSH1 0x0 PUSH2 0xA26 PUSH1 0x2 SLOAD DUP4 PUSH2 0xBA9 SWAP1 SWAP2 SWAP1 PUSH4 0xFFFFFFFF AND JUMP JUMPDEST SWAP1 POP DUP1 SELFBALANCE LT ISZERO PUSH2 0xA6B JUMPI PUSH1 0x40 MLOAD PUSH32 0x8C379A000000000000000000000000000000000000000000000000000000000 DUP2 MSTORE PUSH1 0x4 ADD PUSH2 0xA62 SWAP1 PUSH2 0x111A JUMP JUMPDEST PUSH1 0x40 MLOAD DUP1 SWAP2 SUB SWAP1 REVERT JUMPDEST CALLER PUSH20 0xFFFFFFFFFFFFFFFFFFFFFFFFFFFFFFFFFFFFFFFF AND PUSH2 0x8FC DUP3 SWAP1 DUP2 ISZERO MUL SWAP1 PUSH1 0x40 MLOAD PUSH1 0x0 PUSH1 0x40 MLOAD DUP1 DUP4 SUB DUP2 DUP6 DUP9 DUP9 CALL SWAP4 POP POP POP POP ISZERO DUP1 ISZERO PUSH2 0xAB1 JUMPI RETURNDATASIZE PUSH1 0x0 DUP1 RETURNDATACOPY RETURNDATASIZE PUSH1 0x0 REVERT JUMPDEST POP PUSH1 0x1 DUP6 PUSH1 0x40 MLOAD PUSH2 0xAC2 SWAP2 SWAP1 PUSH2 0x104B JUMP JUMPDEST SWAP1 DUP2 MSTORE PUSH1 0x20 ADD PUSH1 0x40 MLOAD DUP1 SWAP2 SUB SWAP1 KECCAK256 PUSH1 0x0 SWAP1 SLOAD SWAP1 PUSH2 0x100 EXP SWAP1 DIV PUSH20 0xFFFFFFFFFFFFFFFFFFFFFFFFFFFFFFFFFFFFFFFF AND PUSH20 0xFFFFFFFFFFFFFFFFFFFFFFFFFFFFFFFFFFFFFFFF AND PUSH4 0x23B872DD CALLER ADDRESS DUP8 PUSH1 0x40 MLOAD DUP5 PUSH4 0xFFFFFFFF AND PUSH1 0xE0 SHL DUP2 MSTORE PUSH1 0x4 ADD PUSH2 0xB2D SWAP4 SWAP3 SWAP2 SWAP1 PUSH2 0x107D JUMP JUMPDEST PUSH1 0x20 PUSH1 0x40 MLOAD DUP1 DUP4 SUB DUP2 PUSH1 0x0 DUP8 DUP1 EXTCODESIZE ISZERO DUP1 ISZERO PUSH2 0xB47 JUMPI PUSH1 0x0 DUP1 REVERT JUMPDEST POP GAS CALL ISZERO DUP1 ISZERO PUSH2 0xB5B JUMPI RETURNDATASIZE PUSH1 0x0 DUP1 RETURNDATACOPY RETURNDATASIZE PUSH1 0x0 REVERT JUMPDEST POP POP POP POP PUSH1 0x40 MLOAD RETURNDATASIZE PUSH1 0x1F NOT PUSH1 0x1F DUP3 ADD AND DUP3 ADD DUP1 PUSH1 0x40 MSTORE POP DUP2 ADD SWAP1 PUSH2 0xB7F SWAP2 SWAP1 PUSH2 0xD08 JUMP JUMPDEST PUSH2 0xB88 JUMPI PUSH1 0x0 DUP1 REVERT JUMPDEST DUP1 SWAP3 POP POP POP SWAP3 SWAP2 POP POP JUMP JUMPDEST PUSH1 0x0 DUP2 DUP4 PUSH2 0xBA1 SWAP2 SWAP1 PUSH2 0x11D2 JUMP JUMPDEST SWAP1 POP SWAP3 SWAP2 POP POP JUMP JUMPDEST PUSH1 0x0 DUP2 DUP4 PUSH2 0xBB7 SWAP2 SWAP1 PUSH2 0x1374 JUMP JUMPDEST SWAP1 POP SWAP3 SWAP2 POP POP JUMP JUMPDEST PUSH1 0x0 PUSH2 0xBD2 PUSH2 0xBCD DUP5 PUSH2 0x117A JUMP JUMPDEST PUSH2 0x1155 JUMP JUMPDEST SWAP1 POP DUP3 DUP2 MSTORE PUSH1 0x20 DUP2 ADD DUP5 DUP5 DUP5 ADD GT ISZERO PUSH2 0xBEE JUMPI PUSH2 0xBED PUSH2 0x15AD JUMP JUMPDEST JUMPDEST PUSH2 0xBF9 DUP5 DUP3 DUP6 PUSH2 0x1447 JUMP JUMPDEST POP SWAP4 SWAP3 POP POP POP JUMP JUMPDEST PUSH1 0x0 PUSH2 0xC14 PUSH2 0xC0F DUP5 PUSH2 0x117A JUMP JUMPDEST PUSH2 0x1155 JUMP JUMPDEST SWAP1 POP DUP3 DUP2 MSTORE PUSH1 0x20 DUP2 ADD DUP5 DUP5 DUP5 ADD GT ISZERO PUSH2 0xC30 JUMPI PUSH2 0xC2F PUSH2 0x15AD JUMP JUMPDEST JUMPDEST PUSH2 0xC3B DUP5 DUP3 DUP6 PUSH2 0x1456 JUMP JUMPDEST POP SWAP4 SWAP3 POP POP POP JUMP JUMPDEST PUSH1 0x0 DUP2 CALLDATALOAD SWAP1 POP PUSH2 0xC52 DUP2 PUSH2 0x1603 JUMP JUMPDEST SWAP3 SWAP2 POP POP JUMP JUMPDEST PUSH1 0x0 DUP2 MLOAD SWAP1 POP PUSH2 0xC67 DUP2 PUSH2 0x161A JUMP JUMPDEST SWAP3 SWAP2 POP POP JUMP JUMPDEST PUSH1 0x0 DUP3 PUSH1 0x1F DUP4 ADD SLT PUSH2 0xC82 JUMPI PUSH2 0xC81 PUSH2 0x15A8 JUMP JUMPDEST JUMPDEST DUP2 CALLDATALOAD PUSH2 0xC92 DUP5 DUP3 PUSH1 0x20 DUP7 ADD PUSH2 0xBBF JUMP JUMPDEST SWAP2 POP POP SWAP3 SWAP2 POP POP JUMP JUMPDEST PUSH1 0x0 DUP3 PUSH1 0x1F DUP4 ADD SLT PUSH2 0xCB0 JUMPI PUSH2 0xCAF PUSH2 0x15A8 JUMP JUMPDEST JUMPDEST DUP2 MLOAD PUSH2 0xCC0 DUP5 DUP3 PUSH1 0x20 DUP7 ADD PUSH2 0xC01 JUMP JUMPDEST SWAP2 POP POP SWAP3 SWAP2 POP POP JUMP JUMPDEST PUSH1 0x0 DUP2 CALLDATALOAD SWAP1 POP PUSH2 0xCD8 DUP2 PUSH2 0x1631 JUMP JUMPDEST SWAP3 SWAP2 POP POP JUMP JUMPDEST PUSH1 0x0 DUP2 MLOAD SWAP1 POP PUSH2 0xCED DUP2 PUSH2 0x1631 JUMP JUMPDEST SWAP3 SWAP2 POP POP JUMP JUMPDEST PUSH1 0x0 DUP2 MLOAD SWAP1 POP PUSH2 0xD02 DUP2 PUSH2 0x1648 JUMP JUMPDEST SWAP3 SWAP2 POP POP JUMP JUMPDEST PUSH1 0x0 PUSH1 0x20 DUP3 DUP5 SUB SLT ISZERO PUSH2 0xD1E JUMPI PUSH2 0xD1D PUSH2 0x15B7 JUMP JUMPDEST JUMPDEST PUSH1 0x0 PUSH2 0xD2C DUP5 DUP3 DUP6 ADD PUSH2 0xC58 JUMP JUMPDEST SWAP2 POP POP SWAP3 SWAP2 POP POP JUMP JUMPDEST PUSH1 0x0 PUSH1 0x20 DUP3 DUP5 SUB SLT ISZERO PUSH2 0xD4B JUMPI PUSH2 0xD4A PUSH2 0x15B7 JUMP JUMPDEST JUMPDEST PUSH1 0x0 DUP3 ADD CALLDATALOAD PUSH8 0xFFFFFFFFFFFFFFFF DUP2 GT ISZERO PUSH2 0xD69 JUMPI PUSH2 0xD68 PUSH2 0x15B2 JUMP JUMPDEST JUMPDEST PUSH2 0xD75 DUP5 DUP3 DUP6 ADD PUSH2 0xC6D JUMP JUMPDEST SWAP2 POP POP SWAP3 SWAP2 POP POP JUMP JUMPDEST PUSH1 0x0 PUSH1 0x20 DUP3 DUP5 SUB SLT ISZERO PUSH2 0xD94 JUMPI PUSH2 0xD93 PUSH2 0x15B7 JUMP JUMPDEST JUMPDEST PUSH1 0x0 DUP3 ADD MLOAD PUSH8 0xFFFFFFFFFFFFFFFF DUP2 GT ISZERO PUSH2 0xDB2 JUMPI PUSH2 0xDB1 PUSH2 0x15B2 JUMP JUMPDEST JUMPDEST PUSH2 0xDBE DUP5 DUP3 DUP6 ADD PUSH2 0xC9B JUMP JUMPDEST SWAP2 POP POP SWAP3 SWAP2 POP POP JUMP JUMPDEST PUSH1 0x0 DUP1 PUSH1 0x40 DUP4 DUP6 SUB SLT ISZERO PUSH2 0xDDE JUMPI PUSH2 0xDDD PUSH2 0x15B7 JUMP JUMPDEST JUMPDEST PUSH1 0x0 DUP4 ADD CALLDATALOAD PUSH8 0xFFFFFFFFFFFFFFFF DUP2 GT ISZERO PUSH2 0xDFC JUMPI PUSH2 0xDFB PUSH2 0x15B2 JUMP JUMPDEST JUMPDEST PUSH2 0xE08 DUP6 DUP3 DUP7 ADD PUSH2 0xC6D JUMP JUMPDEST SWAP3 POP POP PUSH1 0x20 PUSH2 0xE19 DUP6 DUP3 DUP7 ADD PUSH2 0xC43 JUMP JUMPDEST SWAP2 POP POP SWAP3 POP SWAP3 SWAP1 POP JUMP JUMPDEST PUSH1 0x0 DUP1 PUSH1 0x0 PUSH1 0x60 DUP5 DUP7 SUB SLT ISZERO PUSH2 0xE3C JUMPI PUSH2 0xE3B PUSH2 0x15B7 JUMP JUMPDEST JUMPDEST PUSH1 0x0 DUP5 ADD CALLDATALOAD PUSH8 0xFFFFFFFFFFFFFFFF DUP2 GT ISZERO PUSH2 0xE5A JUMPI PUSH2 0xE59 PUSH2 0x15B2 JUMP JUMPDEST JUMPDEST PUSH2 0xE66 DUP7 DUP3 DUP8 ADD PUSH2 0xC6D JUMP JUMPDEST SWAP4 POP POP PUSH1 0x20 DUP5 ADD CALLDATALOAD PUSH8 0xFFFFFFFFFFFFFFFF DUP2 GT ISZERO PUSH2 0xE87 JUMPI PUSH2 0xE86 PUSH2 0x15B2 JUMP JUMPDEST JUMPDEST PUSH2 0xE93 DUP7 DUP3 DUP8 ADD PUSH2 0xC6D JUMP JUMPDEST SWAP3 POP POP PUSH1 0x40 PUSH2 0xEA4 DUP7 DUP3 DUP8 ADD PUSH2 0xCC9 JUMP JUMPDEST SWAP2 POP POP SWAP3 POP SWAP3 POP SWAP3 JUMP JUMPDEST PUSH1 0x0 DUP1 PUSH1 0x40 DUP4 DUP6 SUB SLT ISZERO PUSH2 0xEC5 JUMPI PUSH2 0xEC4 PUSH2 0x15B7 JUMP JUMPDEST JUMPDEST PUSH1 0x0 DUP4 ADD CALLDATALOAD PUSH8 0xFFFFFFFFFFFFFFFF DUP2 GT ISZERO PUSH2 0xEE3 JUMPI PUSH2 0xEE2 PUSH2 0x15B2 JUMP JUMPDEST JUMPDEST PUSH2 0xEEF DUP6 DUP3 DUP7 ADD PUSH2 0xC6D JUMP JUMPDEST SWAP3 POP POP PUSH1 0x20 PUSH2 0xF00 DUP6 DUP3 DUP7 ADD PUSH2 0xCC9 JUMP JUMPDEST SWAP2 POP POP SWAP3 POP SWAP3 SWAP1 POP JUMP JUMPDEST PUSH1 0x0 PUSH1 0x20 DUP3 DUP5 SUB SLT ISZERO PUSH2 0xF20 JUMPI PUSH2 0xF1F PUSH2 0x15B7 JUMP JUMPDEST JUMPDEST PUSH1 0x0 PUSH2 0xF2E DUP5 DUP3 DUP6 ADD PUSH2 0xCC9 JUMP JUMPDEST SWAP2 POP POP SWAP3 SWAP2 POP POP JUMP JUMPDEST PUSH1 0x0 PUSH1 0x20 DUP3 DUP5 SUB SLT ISZERO PUSH2 0xF4D JUMPI PUSH2 0xF4C PUSH2 0x15B7 JUMP JUMPDEST JUMPDEST PUSH1 0x0 PUSH2 0xF5B DUP5 DUP3 DUP6 ADD PUSH2 0xCDE JUMP JUMPDEST SWAP2 POP POP SWAP3 SWAP2 POP POP JUMP JUMPDEST PUSH1 0x0 PUSH1 0x20 DUP3 DUP5 SUB SLT ISZERO PUSH2 0xF7A JUMPI PUSH2 0xF79 PUSH2 0x15B7 JUMP JUMPDEST JUMPDEST PUSH1 0x0 PUSH2 0xF88 DUP5 DUP3 DUP6 ADD PUSH2 0xCF3 JUMP JUMPDEST SWAP2 POP POP SWAP3 SWAP2 POP POP JUMP JUMPDEST PUSH2 0xF9A DUP2 PUSH2 0x13CE JUMP JUMPDEST DUP3 MSTORE POP POP JUMP JUMPDEST PUSH2 0xFA9 DUP2 PUSH2 0x1423 JUMP JUMPDEST DUP3 MSTORE POP POP JUMP JUMPDEST PUSH1 0x0 PUSH2 0xFBA DUP3 PUSH2 0x11AB JUMP JUMPDEST PUSH2 0xFC4 DUP2 DUP6 PUSH2 0x11B6 JUMP JUMPDEST SWAP4 POP PUSH2 0xFD4 DUP2 DUP6 PUSH1 0x20 DUP7 ADD PUSH2 0x1456 JUMP JUMPDEST PUSH2 0xFDD DUP2 PUSH2 0x15BC JUMP JUMPDEST DUP5 ADD SWAP2 POP POP SWAP3 SWAP2 POP POP JUMP JUMPDEST PUSH1 0x0 PUSH2 0xFF3 DUP3 PUSH2 0x11AB JUMP JUMPDEST PUSH2 0xFFD DUP2 DUP6 PUSH2 0x11C7 JUMP JUMPDEST SWAP4 POP PUSH2 0x100D DUP2 DUP6 PUSH1 0x20 DUP7 ADD PUSH2 0x1456 JUMP JUMPDEST DUP1 DUP5 ADD SWAP2 POP POP SWAP3 SWAP2 POP POP JUMP JUMPDEST PUSH1 0x0 PUSH2 0x1026 PUSH1 0x1E DUP4 PUSH2 0x11B6 JUMP JUMPDEST SWAP2 POP PUSH2 0x1031 DUP3 PUSH2 0x15DA JUMP JUMPDEST PUSH1 0x20 DUP3 ADD SWAP1 POP SWAP2 SWAP1 POP JUMP JUMPDEST PUSH2 0x1045 DUP2 PUSH2 0x140C JUMP JUMPDEST DUP3 MSTORE POP POP JUMP JUMPDEST PUSH1 0x0 PUSH2 0x1057 DUP3 DUP5 PUSH2 0xFE8 JUMP JUMPDEST SWAP2 POP DUP2 SWAP1 POP SWAP3 SWAP2 POP POP JUMP JUMPDEST PUSH1 0x0 PUSH1 0x20 DUP3 ADD SWAP1 POP PUSH2 0x1077 PUSH1 0x0 DUP4 ADD DUP5 PUSH2 0xF91 JUMP JUMPDEST SWAP3 SWAP2 POP POP JUMP JUMPDEST PUSH1 0x0 PUSH1 0x60 DUP3 ADD SWAP1 POP PUSH2 0x1092 PUSH1 0x0 DUP4 ADD DUP7 PUSH2 0xF91 JUMP JUMPDEST PUSH2 0x109F PUSH1 0x20 DUP4 ADD DUP6 PUSH2 0xF91 JUMP JUMPDEST PUSH2 0x10AC PUSH1 0x40 DUP4 ADD DUP5 PUSH2 0x103C JUMP JUMPDEST SWAP5 SWAP4 POP POP POP POP JUMP JUMPDEST PUSH1 0x0 PUSH1 0x40 DUP3 ADD SWAP1 POP PUSH2 0x10C9 PUSH1 0x0 DUP4 ADD DUP6 PUSH2 0xF91 JUMP JUMPDEST PUSH2 0x10D6 PUSH1 0x20 DUP4 ADD DUP5 PUSH2 0x103C JUMP JUMPDEST SWAP4 SWAP3 POP POP POP JUMP JUMPDEST PUSH1 0x0 PUSH1 0x20 DUP3 ADD SWAP1 POP PUSH2 0x10F2 PUSH1 0x0 DUP4 ADD DUP5 PUSH2 0xFA0 JUMP JUMPDEST SWAP3 SWAP2 POP POP JUMP JUMPDEST PUSH1 0x0 PUSH1 0x20 DUP3 ADD SWAP1 POP DUP2 DUP2 SUB PUSH1 0x0 DUP4 ADD MSTORE PUSH2 0x1112 DUP2 DUP5 PUSH2 0xFAF JUMP JUMPDEST SWAP1 POP SWAP3 SWAP2 POP POP JUMP JUMPDEST PUSH1 0x0 PUSH1 0x20 DUP3 ADD SWAP1 POP DUP2 DUP2 SUB PUSH1 0x0 DUP4 ADD MSTORE PUSH2 0x1133 DUP2 PUSH2 0x1019 JUMP JUMPDEST SWAP1 POP SWAP2 SWAP1 POP JUMP JUMPDEST PUSH1 0x0 PUSH1 0x20 DUP3 ADD SWAP1 POP PUSH2 0x114F PUSH1 0x0 DUP4 ADD DUP5 PUSH2 0x103C JUMP JUMPDEST SWAP3 SWAP2 POP POP JUMP JUMPDEST PUSH1 0x0 PUSH2 0x115F PUSH2 0x1170 JUMP JUMPDEST SWAP1 POP PUSH2 0x116B DUP3 DUP3 PUSH2 0x14BB JUMP JUMPDEST SWAP2 SWAP1 POP JUMP JUMPDEST PUSH1 0x0 PUSH1 0x40 MLOAD SWAP1 POP SWAP1 JUMP JUMPDEST PUSH1 0x0 PUSH8 0xFFFFFFFFFFFFFFFF DUP3 GT ISZERO PUSH2 0x1195 JUMPI PUSH2 0x1194 PUSH2 0x1579 JUMP JUMPDEST JUMPDEST PUSH2 0x119E DUP3 PUSH2 0x15BC JUMP JUMPDEST SWAP1 POP PUSH1 0x20 DUP2 ADD SWAP1 POP SWAP2 SWAP1 POP JUMP JUMPDEST PUSH1 0x0 DUP2 MLOAD SWAP1 POP SWAP2 SWAP1 POP JUMP JUMPDEST PUSH1 0x0 DUP3 DUP3 MSTORE PUSH1 0x20 DUP3 ADD SWAP1 POP SWAP3 SWAP2 POP POP JUMP JUMPDEST PUSH1 0x0 DUP2 SWAP1 POP SWAP3 SWAP2 POP POP JUMP JUMPDEST PUSH1 0x0 PUSH2 0x11DD DUP3 PUSH2 0x140C JUMP JUMPDEST SWAP2 POP PUSH2 0x11E8 DUP4 PUSH2 0x140C JUMP JUMPDEST SWAP3 POP DUP3 PUSH2 0x11F8 JUMPI PUSH2 0x11F7 PUSH2 0x151B JUMP JUMPDEST JUMPDEST DUP3 DUP3 DIV SWAP1 POP SWAP3 SWAP2 POP POP JUMP JUMPDEST PUSH1 0x0 DUP1 DUP3 SWAP2 POP DUP4 SWAP1 POP JUMPDEST PUSH1 0x1 DUP6 GT ISZERO PUSH2 0x124D JUMPI DUP1 DUP7 DIV DUP2 GT ISZERO PUSH2 0x1229 JUMPI PUSH2 0x1228 PUSH2 0x14EC JUMP JUMPDEST JUMPDEST PUSH1 0x1 DUP6 AND ISZERO PUSH2 0x1238 JUMPI DUP1 DUP3 MUL SWAP2 POP JUMPDEST DUP1 DUP2 MUL SWAP1 POP PUSH2 0x1246 DUP6 PUSH2 0x15CD JUMP JUMPDEST SWAP5 POP PUSH2 0x120D JUMP JUMPDEST SWAP5 POP SWAP5 SWAP3 POP POP POP JUMP JUMPDEST PUSH1 0x0 PUSH2 0x1261 DUP3 PUSH2 0x140C JUMP JUMPDEST SWAP2 POP PUSH2 0x126C DUP4 PUSH2 0x1416 JUMP JUMPDEST SWAP3 POP PUSH2 0x1299 PUSH32 0xFFFFFFFFFFFFFFFFFFFFFFFFFFFFFFFFFFFFFFFFFFFFFFFFFFFFFFFFFFFFFFFF DUP5 DUP5 PUSH2 0x12A1 JUMP JUMPDEST SWAP1 POP SWAP3 SWAP2 POP POP JUMP JUMPDEST PUSH1 0x0 DUP3 PUSH2 0x12B1 JUMPI PUSH1 0x1 SWAP1 POP PUSH2 0x136D JUMP JUMPDEST DUP2 PUSH2 0x12BF JUMPI PUSH1 0x0 SWAP1 POP PUSH2 0x136D JUMP JUMPDEST DUP2 PUSH1 0x1 DUP2 EQ PUSH2 0x12D5 JUMPI PUSH1 0x2 DUP2 EQ PUSH2 0x12DF JUMPI PUSH2 0x130E JUMP JUMPDEST PUSH1 0x1 SWAP2 POP POP PUSH2 0x136D JUMP JUMPDEST PUSH1 0xFF DUP5 GT ISZERO PUSH2 0x12F1 JUMPI PUSH2 0x12F0 PUSH2 0x14EC JUMP JUMPDEST JUMPDEST DUP4 PUSH1 0x2 EXP SWAP2 POP DUP5 DUP3 GT ISZERO PUSH2 0x1308 JUMPI PUSH2 0x1307 PUSH2 0x14EC JUMP JUMPDEST JUMPDEST POP PUSH2 0x136D JUMP JUMPDEST POP PUSH1 0x20 DUP4 LT PUSH2 0x133 DUP4 LT AND PUSH1 0x4E DUP5 LT PUSH1 0xB DUP5 LT AND OR ISZERO PUSH2 0x1343 JUMPI DUP3 DUP3 EXP SWAP1 POP DUP4 DUP2 GT ISZERO PUSH2 0x133E JUMPI PUSH2 0x133D PUSH2 0x14EC JUMP JUMPDEST JUMPDEST PUSH2 0x136D JUMP JUMPDEST PUSH2 0x1350 DUP5 DUP5 DUP5 PUSH1 0x1 PUSH2 0x1203 JUMP JUMPDEST SWAP3 POP SWAP1 POP DUP2 DUP5 DIV DUP2 GT ISZERO PUSH2 0x1367 JUMPI PUSH2 0x1366 PUSH2 0x14EC JUMP JUMPDEST JUMPDEST DUP2 DUP2 MUL SWAP1 POP JUMPDEST SWAP4 SWAP3 POP POP POP JUMP JUMPDEST PUSH1 0x0 PUSH2 0x137F DUP3 PUSH2 0x140C JUMP JUMPDEST SWAP2 POP PUSH2 0x138A DUP4 PUSH2 0x140C JUMP JUMPDEST SWAP3 POP DUP2 PUSH32 0xFFFFFFFFFFFFFFFFFFFFFFFFFFFFFFFFFFFFFFFFFFFFFFFFFFFFFFFFFFFFFFFF DIV DUP4 GT DUP3 ISZERO ISZERO AND ISZERO PUSH2 0x13C3 JUMPI PUSH2 0x13C2 PUSH2 0x14EC JUMP JUMPDEST JUMPDEST DUP3 DUP3 MUL SWAP1 POP SWAP3 SWAP2 POP POP JUMP JUMPDEST PUSH1 0x0 PUSH2 0x13D9 DUP3 PUSH2 0x13EC JUMP JUMPDEST SWAP1 POP SWAP2 SWAP1 POP JUMP JUMPDEST PUSH1 0x0 DUP2 ISZERO ISZERO SWAP1 POP SWAP2 SWAP1 POP JUMP JUMPDEST PUSH1 0x0 PUSH20 0xFFFFFFFFFFFFFFFFFFFFFFFFFFFFFFFFFFFFFFFF DUP3 AND SWAP1 POP SWAP2 SWAP1 POP JUMP JUMPDEST PUSH1 0x0 DUP2 SWAP1 POP SWAP2 SWAP1 POP JUMP JUMPDEST PUSH1 0x0 PUSH1 0xFF DUP3 AND SWAP1 POP SWAP2 SWAP1 POP JUMP JUMPDEST PUSH1 0x0 PUSH2 0x142E DUP3 PUSH2 0x1435 JUMP JUMPDEST SWAP1 POP SWAP2 SWAP1 POP JUMP JUMPDEST PUSH1 0x0 PUSH2 0x1440 DUP3 PUSH2 0x13EC JUMP JUMPDEST SWAP1 POP SWAP2 SWAP1 POP JUMP JUMPDEST DUP3 DUP2 DUP4 CALLDATACOPY PUSH1 0x0 DUP4 DUP4 ADD MSTORE POP POP POP JUMP JUMPDEST PUSH1 0x0 JUMPDEST DUP4 DUP2 LT ISZERO PUSH2 0x1474 JUMPI DUP1 DUP3 ADD MLOAD DUP2 DUP5 ADD MSTORE PUSH1 0x20 DUP2 ADD SWAP1 POP PUSH2 0x1459 JUMP JUMPDEST DUP4 DUP2 GT ISZERO PUSH2 0x1483 JUMPI PUSH1 0x0 DUP5 DUP5 ADD MSTORE JUMPDEST POP POP POP POP JUMP JUMPDEST PUSH1 0x0 PUSH1 0x2 DUP3 DIV SWAP1 POP PUSH1 0x1 DUP3 AND DUP1 PUSH2 0x14A1 JUMPI PUSH1 0x7F DUP3 AND SWAP2 POP JUMPDEST PUSH1 0x20 DUP3 LT DUP2 EQ ISZERO PUSH2 0x14B5 JUMPI PUSH2 0x14B4 PUSH2 0x154A JUMP JUMPDEST JUMPDEST POP SWAP2 SWAP1 POP JUMP JUMPDEST PUSH2 0x14C4 DUP3 PUSH2 0x15BC JUMP JUMPDEST DUP2 ADD DUP2 DUP2 LT PUSH8 0xFFFFFFFFFFFFFFFF DUP3 GT OR ISZERO PUSH2 0x14E3 JUMPI PUSH2 0x14E2 PUSH2 0x1579 JUMP JUMPDEST JUMPDEST DUP1 PUSH1 0x40 MSTORE POP POP POP JUMP JUMPDEST PUSH32 0x4E487B7100000000000000000000000000000000000000000000000000000000 PUSH1 0x0 MSTORE PUSH1 0x11 PUSH1 0x4 MSTORE PUSH1 0x24 PUSH1 0x0 REVERT JUMPDEST PUSH32 0x4E487B7100000000000000000000000000000000000000000000000000000000 PUSH1 0x0 MSTORE PUSH1 0x12 PUSH1 0x4 MSTORE PUSH1 0x24 PUSH1 0x0 REVERT JUMPDEST PUSH32 0x4E487B7100000000000000000000000000000000000000000000000000000000 PUSH1 0x0 MSTORE PUSH1 0x22 PUSH1 0x4 MSTORE PUSH1 0x24 PUSH1 0x0 REVERT JUMPDEST PUSH32 0x4E487B7100000000000000000000000000000000000000000000000000000000 PUSH1 0x0 MSTORE PUSH1 0x41 PUSH1 0x4 MSTORE PUSH1 0x24 PUSH1 0x0 REVERT JUMPDEST PUSH1 0x0 DUP1 REVERT JUMPDEST PUSH1 0x0 DUP1 REVERT JUMPDEST PUSH1 0x0 DUP1 REVERT JUMPDEST PUSH1 0x0 DUP1 REVERT JUMPDEST PUSH1 0x0 PUSH1 0x1F NOT PUSH1 0x1F DUP4 ADD AND SWAP1 POP SWAP2 SWAP1 POP JUMP JUMPDEST PUSH1 0x0 DUP2 PUSH1 0x1 SHR SWAP1 POP SWAP2 SWAP1 POP JUMP JUMPDEST PUSH32 0x4465782069732072756E6E696E67206C6F77206F6E2062616C616E63652E0000 PUSH1 0x0 DUP3 ADD MSTORE POP JUMP JUMPDEST PUSH2 0x160C DUP2 PUSH2 0x13CE JUMP JUMPDEST DUP2 EQ PUSH2 0x1617 JUMPI PUSH1 0x0 DUP1 REVERT JUMPDEST POP JUMP JUMPDEST PUSH2 0x1623 DUP2 PUSH2 0x13E0 JUMP JUMPDEST DUP2 EQ PUSH2 0x162E JUMPI PUSH1 0x0 DUP1 REVERT JUMPDEST POP JUMP JUMPDEST PUSH2 0x163A DUP2 PUSH2 0x140C JUMP JUMPDEST DUP2 EQ PUSH2 0x1645 JUMPI PUSH1 0x0 DUP1 REVERT JUMPDEST POP JUMP JUMPDEST PUSH2 0x1651 DUP2 PUSH2 0x1416 JUMP JUMPDEST DUP2 EQ PUSH2 0x165C JUMPI PUSH1 0x0 DUP1 REVERT JUMPDEST POP JUMP INVALID LOG2 PUSH5 0x6970667358 0x22 SLT KECCAK256 ADDRESS 0xB0 0x4B CREATE 0xCD NUMBER 0xD9 0x5D CALLDATALOAD PUSH11 0xC18B4365B38DCF0781D525 0xEF 0x49 PUSH26 0xDF58DAEE39BAF46064736F6C6343000806003360806040523480 ISZERO PUSH3 0x11 JUMPI PUSH1 0x0 DUP1 REVERT JUMPDEST POP PUSH1 0x40 MLOAD PUSH3 0x18FE CODESIZE SUB DUP1 PUSH3 0x18FE DUP4 CODECOPY DUP2 DUP2 ADD PUSH1 0x40 MSTORE DUP2 ADD SWAP1 PUSH3 0x37 SWAP2 SWAP1 PUSH3 0x33F JUMP JUMPDEST DUP2 DUP2 DUP2 PUSH1 0x3 SWAP1 DUP1 MLOAD SWAP1 PUSH1 0x20 ADD SWAP1 PUSH3 0x51 SWAP3 SWAP2 SWAP1 PUSH3 0x211 JUMP JUMPDEST POP DUP1 PUSH1 0x4 SWAP1 DUP1 MLOAD SWAP1 PUSH1 0x20 ADD SWAP1 PUSH3 0x6A SWAP3 SWAP2 SWAP1 PUSH3 0x211 JUMP JUMPDEST POP POP POP PUSH3 0x91 CALLER PUSH18 0x125DFA371A19E6F7CB54395CA0000000000 PUSH3 0x99 PUSH1 0x20 SHL PUSH1 0x20 SHR JUMP JUMPDEST POP POP PUSH3 0x68F JUMP JUMPDEST PUSH1 0x0 PUSH20 0xFFFFFFFFFFFFFFFFFFFFFFFFFFFFFFFFFFFFFFFF AND DUP3 PUSH20 0xFFFFFFFFFFFFFFFFFFFFFFFFFFFFFFFFFFFFFFFF AND EQ ISZERO PUSH3 0x10C JUMPI PUSH1 0x40 MLOAD PUSH32 0x8C379A000000000000000000000000000000000000000000000000000000000 DUP2 MSTORE PUSH1 0x4 ADD PUSH3 0x103 SWAP1 PUSH3 0x3FC JUMP JUMPDEST PUSH1 0x40 MLOAD DUP1 SWAP2 SUB SWAP1 REVERT JUMPDEST PUSH3 0x120 PUSH1 0x0 DUP4 DUP4 PUSH3 0x207 PUSH1 0x20 SHL PUSH1 0x20 SHR JUMP JUMPDEST DUP1 PUSH1 0x2 PUSH1 0x0 DUP3 DUP3 SLOAD PUSH3 0x134 SWAP2 SWAP1 PUSH3 0x4AB JUMP JUMPDEST SWAP3 POP POP DUP2 SWAP1 SSTORE POP DUP1 PUSH1 0x0 DUP1 DUP5 PUSH20 0xFFFFFFFFFFFFFFFFFFFFFFFFFFFFFFFFFFFFFFFF AND PUSH20 0xFFFFFFFFFFFFFFFFFFFFFFFFFFFFFFFFFFFFFFFF AND DUP2 MSTORE PUSH1 0x20 ADD SWAP1 DUP2 MSTORE PUSH1 0x20 ADD PUSH1 0x0 KECCAK256 PUSH1 0x0 DUP3 DUP3 SLOAD ADD SWAP3 POP POP DUP2 SWAP1 SSTORE POP DUP2 PUSH20 0xFFFFFFFFFFFFFFFFFFFFFFFFFFFFFFFFFFFFFFFF AND PUSH1 0x0 PUSH20 0xFFFFFFFFFFFFFFFFFFFFFFFFFFFFFFFFFFFFFFFF AND PUSH32 0xDDF252AD1BE2C89B69C2B068FC378DAA952BA7F163C4A11628F55A4DF523B3EF DUP4 PUSH1 0x40 MLOAD PUSH3 0x1E7 SWAP2 SWAP1 PUSH3 0x41E JUMP JUMPDEST PUSH1 0x40 MLOAD DUP1 SWAP2 SUB SWAP1 LOG3 PUSH3 0x203 PUSH1 0x0 DUP4 DUP4 PUSH3 0x20C PUSH1 0x20 SHL PUSH1 0x20 SHR JUMP JUMPDEST POP POP JUMP JUMPDEST POP POP POP JUMP JUMPDEST POP POP POP JUMP JUMPDEST DUP3 DUP1 SLOAD PUSH3 0x21F SWAP1 PUSH3 0x548 JUMP JUMPDEST SWAP1 PUSH1 0x0 MSTORE PUSH1 0x20 PUSH1 0x0 KECCAK256 SWAP1 PUSH1 0x1F ADD PUSH1 0x20 SWAP1 DIV DUP2 ADD SWAP3 DUP3 PUSH3 0x243 JUMPI PUSH1 0x0 DUP6 SSTORE PUSH3 0x28F JUMP JUMPDEST DUP3 PUSH1 0x1F LT PUSH3 0x25E JUMPI DUP1 MLOAD PUSH1 0xFF NOT AND DUP4 DUP1 ADD OR DUP6 SSTORE PUSH3 0x28F JUMP JUMPDEST DUP3 DUP1 ADD PUSH1 0x1 ADD DUP6 SSTORE DUP3 ISZERO PUSH3 0x28F JUMPI SWAP2 DUP3 ADD JUMPDEST DUP3 DUP2 GT ISZERO PUSH3 0x28E JUMPI DUP3 MLOAD DUP3 SSTORE SWAP2 PUSH1 0x20 ADD SWAP2 SWAP1 PUSH1 0x1 ADD SWAP1 PUSH3 0x271 JUMP JUMPDEST JUMPDEST POP SWAP1 POP PUSH3 0x29E SWAP2 SWAP1 PUSH3 0x2A2 JUMP JUMPDEST POP SWAP1 JUMP JUMPDEST JUMPDEST DUP1 DUP3 GT ISZERO PUSH3 0x2BD JUMPI PUSH1 0x0 DUP2 PUSH1 0x0 SWAP1 SSTORE POP PUSH1 0x1 ADD PUSH3 0x2A3 JUMP JUMPDEST POP SWAP1 JUMP JUMPDEST PUSH1 0x0 PUSH3 0x2D8 PUSH3 0x2D2 DUP5 PUSH3 0x464 JUMP JUMPDEST PUSH3 0x43B JUMP JUMPDEST SWAP1 POP DUP3 DUP2 MSTORE PUSH1 0x20 DUP2 ADD DUP5 DUP5 DUP5 ADD GT ISZERO PUSH3 0x2F7 JUMPI PUSH3 0x2F6 PUSH3 0x646 JUMP JUMPDEST JUMPDEST PUSH3 0x304 DUP5 DUP3 DUP6 PUSH3 0x512 JUMP JUMPDEST POP SWAP4 SWAP3 POP POP POP JUMP JUMPDEST PUSH1 0x0 DUP3 PUSH1 0x1F DUP4 ADD SLT PUSH3 0x324 JUMPI PUSH3 0x323 PUSH3 0x641 JUMP JUMPDEST JUMPDEST DUP2 MLOAD PUSH3 0x336 DUP5 DUP3 PUSH1 0x20 DUP7 ADD PUSH3 0x2C1 JUMP JUMPDEST SWAP2 POP POP SWAP3 SWAP2 POP POP JUMP JUMPDEST PUSH1 0x0 DUP1 PUSH1 0x40 DUP4 DUP6 SUB SLT ISZERO PUSH3 0x359 JUMPI PUSH3 0x358 PUSH3 0x650 JUMP JUMPDEST JUMPDEST PUSH1 0x0 DUP4 ADD MLOAD PUSH8 0xFFFFFFFFFFFFFFFF DUP2 GT ISZERO PUSH3 0x37A JUMPI PUSH3 0x379 PUSH3 0x64B JUMP JUMPDEST JUMPDEST PUSH3 0x388 DUP6 DUP3 DUP7 ADD PUSH3 0x30C JUMP JUMPDEST SWAP3 POP POP PUSH1 0x20 DUP4 ADD MLOAD PUSH8 0xFFFFFFFFFFFFFFFF DUP2 GT ISZERO PUSH3 0x3AC JUMPI PUSH3 0x3AB PUSH3 0x64B JUMP JUMPDEST JUMPDEST PUSH3 0x3BA DUP6 DUP3 DUP7 ADD PUSH3 0x30C JUMP JUMPDEST SWAP2 POP POP SWAP3 POP SWAP3 SWAP1 POP JUMP JUMPDEST PUSH1 0x0 PUSH3 0x3D3 PUSH1 0x1F DUP4 PUSH3 0x49A JUMP JUMPDEST SWAP2 POP PUSH3 0x3E0 DUP3 PUSH3 0x666 JUMP JUMPDEST PUSH1 0x20 DUP3 ADD SWAP1 POP SWAP2 SWAP1 POP JUMP JUMPDEST PUSH3 0x3F6 DUP2 PUSH3 0x508 JUMP JUMPDEST DUP3 MSTORE POP POP JUMP JUMPDEST PUSH1 0x0 PUSH1 0x20 DUP3 ADD SWAP1 POP DUP2 DUP2 SUB PUSH1 0x0 DUP4 ADD MSTORE PUSH3 0x417 DUP2 PUSH3 0x3C4 JUMP JUMPDEST SWAP1 POP SWAP2 SWAP1 POP JUMP JUMPDEST PUSH1 0x0 PUSH1 0x20 DUP3 ADD SWAP1 POP PUSH3 0x435 PUSH1 0x0 DUP4 ADD DUP5 PUSH3 0x3EB JUMP JUMPDEST SWAP3 SWAP2 POP POP JUMP JUMPDEST PUSH1 0x0 PUSH3 0x447 PUSH3 0x45A JUMP JUMPDEST SWAP1 POP PUSH3 0x455 DUP3 DUP3 PUSH3 0x57E JUMP JUMPDEST SWAP2 SWAP1 POP JUMP JUMPDEST PUSH1 0x0 PUSH1 0x40 MLOAD SWAP1 POP SWAP1 JUMP JUMPDEST PUSH1 0x0 PUSH8 0xFFFFFFFFFFFFFFFF DUP3 GT ISZERO PUSH3 0x482 JUMPI PUSH3 0x481 PUSH3 0x612 JUMP JUMPDEST JUMPDEST PUSH3 0x48D DUP3 PUSH3 0x655 JUMP JUMPDEST SWAP1 POP PUSH1 0x20 DUP2 ADD SWAP1 POP SWAP2 SWAP1 POP JUMP JUMPDEST PUSH1 0x0 DUP3 DUP3 MSTORE PUSH1 0x20 DUP3 ADD SWAP1 POP SWAP3 SWAP2 POP POP JUMP JUMPDEST PUSH1 0x0 PUSH3 0x4B8 DUP3 PUSH3 0x508 JUMP JUMPDEST SWAP2 POP PUSH3 0x4C5 DUP4 PUSH3 0x508 JUMP JUMPDEST SWAP3 POP DUP3 PUSH32 0xFFFFFFFFFFFFFFFFFFFFFFFFFFFFFFFFFFFFFFFFFFFFFFFFFFFFFFFFFFFFFFFF SUB DUP3 GT ISZERO PUSH3 0x4FD JUMPI PUSH3 0x4FC PUSH3 0x5B4 JUMP JUMPDEST JUMPDEST DUP3 DUP3 ADD SWAP1 POP SWAP3 SWAP2 POP POP JUMP JUMPDEST PUSH1 0x0 DUP2 SWAP1 POP SWAP2 SWAP1 POP JUMP JUMPDEST PUSH1 0x0 JUMPDEST DUP4 DUP2 LT ISZERO PUSH3 0x532 JUMPI DUP1 DUP3 ADD MLOAD DUP2 DUP5 ADD MSTORE PUSH1 0x20 DUP2 ADD SWAP1 POP PUSH3 0x515 JUMP JUMPDEST DUP4 DUP2 GT ISZERO PUSH3 0x542 JUMPI PUSH1 0x0 DUP5 DUP5 ADD MSTORE JUMPDEST POP POP POP POP JUMP JUMPDEST PUSH1 0x0 PUSH1 0x2 DUP3 DIV SWAP1 POP PUSH1 0x1 DUP3 AND DUP1 PUSH3 0x561 JUMPI PUSH1 0x7F DUP3 AND SWAP2 POP JUMPDEST PUSH1 0x20 DUP3 LT DUP2 EQ ISZERO PUSH3 0x578 JUMPI PUSH3 0x577 PUSH3 0x5E3 JUMP JUMPDEST JUMPDEST POP SWAP2 SWAP1 POP JUMP JUMPDEST PUSH3 0x589 DUP3 PUSH3 0x655 JUMP JUMPDEST DUP2 ADD DUP2 DUP2 LT PUSH8 0xFFFFFFFFFFFFFFFF DUP3 GT OR ISZERO PUSH3 0x5AB JUMPI PUSH3 0x5AA PUSH3 0x612 JUMP JUMPDEST JUMPDEST DUP1 PUSH1 0x40 MSTORE POP POP POP JUMP JUMPDEST PUSH32 0x4E487B7100000000000000000000000000000000000000000000000000000000 PUSH1 0x0 MSTORE PUSH1 0x11 PUSH1 0x4 MSTORE PUSH1 0x24 PUSH1 0x0 REVERT JUMPDEST PUSH32 0x4E487B7100000000000000000000000000000000000000000000000000000000 PUSH1 0x0 MSTORE PUSH1 0x22 PUSH1 0x4 MSTORE PUSH1 0x24 PUSH1 0x0 REVERT JUMPDEST PUSH32 0x4E487B7100000000000000000000000000000000000000000000000000000000 PUSH1 0x0 MSTORE PUSH1 0x41 PUSH1 0x4 MSTORE PUSH1 0x24 PUSH1 0x0 REVERT JUMPDEST PUSH1 0x0 DUP1 REVERT JUMPDEST PUSH1 0x0 DUP1 REVERT JUMPDEST PUSH1 0x0 DUP1 REVERT JUMPDEST PUSH1 0x0 DUP1 REVERT JUMPDEST PUSH1 0x0 PUSH1 0x1F NOT PUSH1 0x1F DUP4 ADD AND SWAP1 POP SWAP2 SWAP1 POP JUMP JUMPDEST PUSH32 0x45524332303A206D696E7420746F20746865207A65726F206164647265737300 PUSH1 0x0 DUP3 ADD MSTORE POP JUMP JUMPDEST PUSH2 0x125F DUP1 PUSH3 0x69F PUSH1 0x0 CODECOPY PUSH1 0x0 RETURN INVALID PUSH1 0x80 PUSH1 0x40 MSTORE CALLVALUE DUP1 ISZERO PUSH2 0x10 JUMPI PUSH1 0x0 DUP1 REVERT JUMPDEST POP PUSH1 0x4 CALLDATASIZE LT PUSH2 0xA9 JUMPI PUSH1 0x0 CALLDATALOAD PUSH1 0xE0 SHR DUP1 PUSH4 0x39509351 GT PUSH2 0x71 JUMPI DUP1 PUSH4 0x39509351 EQ PUSH2 0x168 JUMPI DUP1 PUSH4 0x70A08231 EQ PUSH2 0x198 JUMPI DUP1 PUSH4 0x95D89B41 EQ PUSH2 0x1C8 JUMPI DUP1 PUSH4 0xA457C2D7 EQ PUSH2 0x1E6 JUMPI DUP1 PUSH4 0xA9059CBB EQ PUSH2 0x216 JUMPI DUP1 PUSH4 0xDD62ED3E EQ PUSH2 0x246 JUMPI PUSH2 0xA9 JUMP JUMPDEST DUP1 PUSH4 0x6FDDE03 EQ PUSH2 0xAE JUMPI DUP1 PUSH4 0x95EA7B3 EQ PUSH2 0xCC JUMPI DUP1 PUSH4 0x18160DDD EQ PUSH2 0xFC JUMPI DUP1 PUSH4 0x23B872DD EQ PUSH2 0x11A JUMPI DUP1 PUSH4 0x313CE567 EQ PUSH2 0x14A JUMPI JUMPDEST PUSH1 0x0 DUP1 REVERT JUMPDEST PUSH2 0xB6 PUSH2 0x276 JUMP JUMPDEST PUSH1 0x40 MLOAD PUSH2 0xC3 SWAP2 SWAP1 PUSH2 0xD20 JUMP JUMPDEST PUSH1 0x40 MLOAD DUP1 SWAP2 SUB SWAP1 RETURN JUMPDEST PUSH2 0xE6 PUSH1 0x4 DUP1 CALLDATASIZE SUB DUP2 ADD SWAP1 PUSH2 0xE1 SWAP2 SWAP1 PUSH2 0xB6A JUMP JUMPDEST PUSH2 0x308 JUMP JUMPDEST PUSH1 0x40 MLOAD PUSH2 0xF3 SWAP2 SWAP1 PUSH2 0xD05 JUMP JUMPDEST PUSH1 0x40 MLOAD DUP1 SWAP2 SUB SWAP1 RETURN JUMPDEST PUSH2 0x104 PUSH2 0x32B JUMP JUMPDEST PUSH1 0x40 MLOAD PUSH2 0x111 SWAP2 SWAP1 PUSH2 0xE22 JUMP JUMPDEST PUSH1 0x40 MLOAD DUP1 SWAP2 SUB SWAP1 RETURN JUMPDEST PUSH2 0x134 PUSH1 0x4 DUP1 CALLDATASIZE SUB DUP2 ADD SWAP1 PUSH2 0x12F SWAP2 SWAP1 PUSH2 0xB17 JUMP JUMPDEST PUSH2 0x335 JUMP JUMPDEST PUSH1 0x40 MLOAD PUSH2 0x141 SWAP2 SWAP1 PUSH2 0xD05 JUMP JUMPDEST PUSH1 0x40 MLOAD DUP1 SWAP2 SUB SWAP1 RETURN JUMPDEST PUSH2 0x152 PUSH2 0x364 JUMP JUMPDEST PUSH1 0x40 MLOAD PUSH2 0x15F SWAP2 SWAP1 PUSH2 0xE3D JUMP JUMPDEST PUSH1 0x40 MLOAD DUP1 SWAP2 SUB SWAP1 RETURN JUMPDEST PUSH2 0x182 PUSH1 0x4 DUP1 CALLDATASIZE SUB DUP2 ADD SWAP1 PUSH2 0x17D SWAP2 SWAP1 PUSH2 0xB6A JUMP JUMPDEST PUSH2 0x36D JUMP JUMPDEST PUSH1 0x40 MLOAD PUSH2 0x18F SWAP2 SWAP1 PUSH2 0xD05 JUMP JUMPDEST PUSH1 0x40 MLOAD DUP1 SWAP2 SUB SWAP1 RETURN JUMPDEST PUSH2 0x1B2 PUSH1 0x4 DUP1 CALLDATASIZE SUB DUP2 ADD SWAP1 PUSH2 0x1AD SWAP2 SWAP1 PUSH2 0xAAA JUMP JUMPDEST PUSH2 0x3A4 JUMP JUMPDEST PUSH1 0x40 MLOAD PUSH2 0x1BF SWAP2 SWAP1 PUSH2 0xE22 JUMP JUMPDEST PUSH1 0x40 MLOAD DUP1 SWAP2 SUB SWAP1 RETURN JUMPDEST PUSH2 0x1D0 PUSH2 0x3EC JUMP JUMPDEST PUSH1 0x40 MLOAD PUSH2 0x1DD SWAP2 SWAP1 PUSH2 0xD20 JUMP JUMPDEST PUSH1 0x40 MLOAD DUP1 SWAP2 SUB SWAP1 RETURN JUMPDEST PUSH2 0x200 PUSH1 0x4 DUP1 CALLDATASIZE SUB DUP2 ADD SWAP1 PUSH2 0x1FB SWAP2 SWAP1 PUSH2 0xB6A JUMP JUMPDEST PUSH2 0x47E JUMP JUMPDEST PUSH1 0x40 MLOAD PUSH2 0x20D SWAP2 SWAP1 PUSH2 0xD05 JUMP JUMPDEST PUSH1 0x40 MLOAD DUP1 SWAP2 SUB SWAP1 RETURN JUMPDEST PUSH2 0x230 PUSH1 0x4 DUP1 CALLDATASIZE SUB DUP2 ADD SWAP1 PUSH2 0x22B SWAP2 SWAP1 PUSH2 0xB6A JUMP JUMPDEST PUSH2 0x4F5 JUMP JUMPDEST PUSH1 0x40 MLOAD PUSH2 0x23D SWAP2 SWAP1 PUSH2 0xD05 JUMP JUMPDEST PUSH1 0x40 MLOAD DUP1 SWAP2 SUB SWAP1 RETURN JUMPDEST PUSH2 0x260 PUSH1 0x4 DUP1 CALLDATASIZE SUB DUP2 ADD SWAP1 PUSH2 0x25B SWAP2 SWAP1 PUSH2 0xAD7 JUMP JUMPDEST PUSH2 0x518 JUMP JUMPDEST PUSH1 0x40 MLOAD PUSH2 0x26D SWAP2 SWAP1 PUSH2 0xE22 JUMP JUMPDEST PUSH1 0x40 MLOAD DUP1 SWAP2 SUB SWAP1 RETURN JUMPDEST PUSH1 0x60 PUSH1 0x3 DUP1 SLOAD PUSH2 0x285 SWAP1 PUSH2 0xF52 JUMP JUMPDEST DUP1 PUSH1 0x1F ADD PUSH1 0x20 DUP1 SWAP2 DIV MUL PUSH1 0x20 ADD PUSH1 0x40 MLOAD SWAP1 DUP2 ADD PUSH1 0x40 MSTORE DUP1 SWAP3 SWAP2 SWAP1 DUP2 DUP2 MSTORE PUSH1 0x20 ADD DUP3 DUP1 SLOAD PUSH2 0x2B1 SWAP1 PUSH2 0xF52 JUMP JUMPDEST DUP1 ISZERO PUSH2 0x2FE JUMPI DUP1 PUSH1 0x1F LT PUSH2 0x2D3 JUMPI PUSH2 0x100 DUP1 DUP4 SLOAD DIV MUL DUP4 MSTORE SWAP2 PUSH1 0x20 ADD SWAP2 PUSH2 0x2FE JUMP JUMPDEST DUP3 ADD SWAP2 SWAP1 PUSH1 0x0 MSTORE PUSH1 0x20 PUSH1 0x0 KECCAK256 SWAP1 JUMPDEST DUP2 SLOAD DUP2 MSTORE SWAP1 PUSH1 0x1 ADD SWAP1 PUSH1 0x20 ADD DUP1 DUP4 GT PUSH2 0x2E1 JUMPI DUP3 SWAP1 SUB PUSH1 0x1F AND DUP3 ADD SWAP2 JUMPDEST POP POP POP POP POP SWAP1 POP SWAP1 JUMP JUMPDEST PUSH1 0x0 DUP1 PUSH2 0x313 PUSH2 0x59F JUMP JUMPDEST SWAP1 POP PUSH2 0x320 DUP2 DUP6 DUP6 PUSH2 0x5A7 JUMP JUMPDEST PUSH1 0x1 SWAP2 POP POP SWAP3 SWAP2 POP POP JUMP JUMPDEST PUSH1 0x0 PUSH1 0x2 SLOAD SWAP1 POP SWAP1 JUMP JUMPDEST PUSH1 0x0 DUP1 PUSH2 0x340 PUSH2 0x59F JUMP JUMPDEST SWAP1 POP PUSH2 0x34D DUP6 DUP3 DUP6 PUSH2 0x772 JUMP JUMPDEST PUSH2 0x358 DUP6 DUP6 DUP6 PUSH2 0x7FE JUMP JUMPDEST PUSH1 0x1 SWAP2 POP POP SWAP4 SWAP3 POP POP POP JUMP JUMPDEST PUSH1 0x0 PUSH1 0x12 SWAP1 POP SWAP1 JUMP JUMPDEST PUSH1 0x0 DUP1 PUSH2 0x378 PUSH2 0x59F JUMP JUMPDEST SWAP1 POP PUSH2 0x399 DUP2 DUP6 DUP6 PUSH2 0x38A DUP6 DUP10 PUSH2 0x518 JUMP JUMPDEST PUSH2 0x394 SWAP2 SWAP1 PUSH2 0xE74 JUMP JUMPDEST PUSH2 0x5A7 JUMP JUMPDEST PUSH1 0x1 SWAP2 POP POP SWAP3 SWAP2 POP POP JUMP JUMPDEST PUSH1 0x0 DUP1 PUSH1 0x0 DUP4 PUSH20 0xFFFFFFFFFFFFFFFFFFFFFFFFFFFFFFFFFFFFFFFF AND PUSH20 0xFFFFFFFFFFFFFFFFFFFFFFFFFFFFFFFFFFFFFFFF AND DUP2 MSTORE PUSH1 0x20 ADD SWAP1 DUP2 MSTORE PUSH1 0x20 ADD PUSH1 0x0 KECCAK256 SLOAD SWAP1 POP SWAP2 SWAP1 POP JUMP JUMPDEST PUSH1 0x60 PUSH1 0x4 DUP1 SLOAD PUSH2 0x3FB SWAP1 PUSH2 0xF52 JUMP JUMPDEST DUP1 PUSH1 0x1F ADD PUSH1 0x20 DUP1 SWAP2 DIV MUL PUSH1 0x20 ADD PUSH1 0x40 MLOAD SWAP1 DUP2 ADD PUSH1 0x40 MSTORE DUP1 SWAP3 SWAP2 SWAP1 DUP2 DUP2 MSTORE PUSH1 0x20 ADD DUP3 DUP1 SLOAD PUSH2 0x427 SWAP1 PUSH2 0xF52 JUMP JUMPDEST DUP1 ISZERO PUSH2 0x474 JUMPI DUP1 PUSH1 0x1F LT PUSH2 0x449 JUMPI PUSH2 0x100 DUP1 DUP4 SLOAD DIV MUL DUP4 MSTORE SWAP2 PUSH1 0x20 ADD SWAP2 PUSH2 0x474 JUMP JUMPDEST DUP3 ADD SWAP2 SWAP1 PUSH1 0x0 MSTORE PUSH1 0x20 PUSH1 0x0 KECCAK256 SWAP1 JUMPDEST DUP2 SLOAD DUP2 MSTORE SWAP1 PUSH1 0x1 ADD SWAP1 PUSH1 0x20 ADD DUP1 DUP4 GT PUSH2 0x457 JUMPI DUP3 SWAP1 SUB PUSH1 0x1F AND DUP3 ADD SWAP2 JUMPDEST POP POP POP POP POP SWAP1 POP SWAP1 JUMP JUMPDEST PUSH1 0x0 DUP1 PUSH2 0x489 PUSH2 0x59F JUMP JUMPDEST SWAP1 POP PUSH1 0x0 PUSH2 0x497 DUP3 DUP7 PUSH2 0x518 JUMP JUMPDEST SWAP1 POP DUP4 DUP2 LT ISZERO PUSH2 0x4DC JUMPI PUSH1 0x40 MLOAD PUSH32 0x8C379A000000000000000000000000000000000000000000000000000000000 DUP2 MSTORE PUSH1 0x4 ADD PUSH2 0x4D3 SWAP1 PUSH2 0xE02 JUMP JUMPDEST PUSH1 0x40 MLOAD DUP1 SWAP2 SUB SWAP1 REVERT JUMPDEST PUSH2 0x4E9 DUP3 DUP7 DUP7 DUP5 SUB PUSH2 0x5A7 JUMP JUMPDEST PUSH1 0x1 SWAP3 POP POP POP SWAP3 SWAP2 POP POP JUMP JUMPDEST PUSH1 0x0 DUP1 PUSH2 0x500 PUSH2 0x59F JUMP JUMPDEST SWAP1 POP PUSH2 0x50D DUP2 DUP6 DUP6 PUSH2 0x7FE JUMP JUMPDEST PUSH1 0x1 SWAP2 POP POP SWAP3 SWAP2 POP POP JUMP JUMPDEST PUSH1 0x0 PUSH1 0x1 PUSH1 0x0 DUP5 PUSH20 0xFFFFFFFFFFFFFFFFFFFFFFFFFFFFFFFFFFFFFFFF AND PUSH20 0xFFFFFFFFFFFFFFFFFFFFFFFFFFFFFFFFFFFFFFFF AND DUP2 MSTORE PUSH1 0x20 ADD SWAP1 DUP2 MSTORE PUSH1 0x20 ADD PUSH1 0x0 KECCAK256 PUSH1 0x0 DUP4 PUSH20 0xFFFFFFFFFFFFFFFFFFFFFFFFFFFFFFFFFFFFFFFF AND PUSH20 0xFFFFFFFFFFFFFFFFFFFFFFFFFFFFFFFFFFFFFFFF AND DUP2 MSTORE PUSH1 0x20 ADD SWAP1 DUP2 MSTORE PUSH1 0x20 ADD PUSH1 0x0 KECCAK256 SLOAD SWAP1 POP SWAP3 SWAP2 POP POP JUMP JUMPDEST PUSH1 0x0 CALLER SWAP1 POP SWAP1 JUMP JUMPDEST PUSH1 0x0 PUSH20 0xFFFFFFFFFFFFFFFFFFFFFFFFFFFFFFFFFFFFFFFF AND DUP4 PUSH20 0xFFFFFFFFFFFFFFFFFFFFFFFFFFFFFFFFFFFFFFFF AND EQ ISZERO PUSH2 0x617 JUMPI PUSH1 0x40 MLOAD PUSH32 0x8C379A000000000000000000000000000000000000000000000000000000000 DUP2 MSTORE PUSH1 0x4 ADD PUSH2 0x60E SWAP1 PUSH2 0xDE2 JUMP JUMPDEST PUSH1 0x40 MLOAD DUP1 SWAP2 SUB SWAP1 REVERT JUMPDEST PUSH1 0x0 PUSH20 0xFFFFFFFFFFFFFFFFFFFFFFFFFFFFFFFFFFFFFFFF AND DUP3 PUSH20 0xFFFFFFFFFFFFFFFFFFFFFFFFFFFFFFFFFFFFFFFF AND EQ ISZERO PUSH2 0x687 JUMPI PUSH1 0x40 MLOAD PUSH32 0x8C379A000000000000000000000000000000000000000000000000000000000 DUP2 MSTORE PUSH1 0x4 ADD PUSH2 0x67E SWAP1 PUSH2 0xD62 JUMP JUMPDEST PUSH1 0x40 MLOAD DUP1 SWAP2 SUB SWAP1 REVERT JUMPDEST DUP1 PUSH1 0x1 PUSH1 0x0 DUP6 PUSH20 0xFFFFFFFFFFFFFFFFFFFFFFFFFFFFFFFFFFFFFFFF AND PUSH20 0xFFFFFFFFFFFFFFFFFFFFFFFFFFFFFFFFFFFFFFFF AND DUP2 MSTORE PUSH1 0x20 ADD SWAP1 DUP2 MSTORE PUSH1 0x20 ADD PUSH1 0x0 KECCAK256 PUSH1 0x0 DUP5 PUSH20 0xFFFFFFFFFFFFFFFFFFFFFFFFFFFFFFFFFFFFFFFF AND PUSH20 0xFFFFFFFFFFFFFFFFFFFFFFFFFFFFFFFFFFFFFFFF AND DUP2 MSTORE PUSH1 0x20 ADD SWAP1 DUP2 MSTORE PUSH1 0x20 ADD PUSH1 0x0 KECCAK256 DUP2 SWAP1 SSTORE POP DUP2 PUSH20 0xFFFFFFFFFFFFFFFFFFFFFFFFFFFFFFFFFFFFFFFF AND DUP4 PUSH20 0xFFFFFFFFFFFFFFFFFFFFFFFFFFFFFFFFFFFFFFFF AND PUSH32 0x8C5BE1E5EBEC7D5BD14F71427D1E84F3DD0314C0F7B2291E5B200AC8C7C3B925 DUP4 PUSH1 0x40 MLOAD PUSH2 0x765 SWAP2 SWAP1 PUSH2 0xE22 JUMP JUMPDEST PUSH1 0x40 MLOAD DUP1 SWAP2 SUB SWAP1 LOG3 POP POP POP JUMP JUMPDEST PUSH1 0x0 PUSH2 0x77E DUP5 DUP5 PUSH2 0x518 JUMP JUMPDEST SWAP1 POP PUSH32 0xFFFFFFFFFFFFFFFFFFFFFFFFFFFFFFFFFFFFFFFFFFFFFFFFFFFFFFFFFFFFFFFF DUP2 EQ PUSH2 0x7F8 JUMPI DUP2 DUP2 LT ISZERO PUSH2 0x7EA JUMPI PUSH1 0x40 MLOAD PUSH32 0x8C379A000000000000000000000000000000000000000000000000000000000 DUP2 MSTORE PUSH1 0x4 ADD PUSH2 0x7E1 SWAP1 PUSH2 0xD82 JUMP JUMPDEST PUSH1 0x40 MLOAD DUP1 SWAP2 SUB SWAP1 REVERT JUMPDEST PUSH2 0x7F7 DUP5 DUP5 DUP5 DUP5 SUB PUSH2 0x5A7 JUMP JUMPDEST JUMPDEST POP POP POP POP JUMP JUMPDEST PUSH1 0x0 PUSH20 0xFFFFFFFFFFFFFFFFFFFFFFFFFFFFFFFFFFFFFFFF AND DUP4 PUSH20 0xFFFFFFFFFFFFFFFFFFFFFFFFFFFFFFFFFFFFFFFF AND EQ ISZERO PUSH2 0x86E JUMPI PUSH1 0x40 MLOAD PUSH32 0x8C379A000000000000000000000000000000000000000000000000000000000 DUP2 MSTORE PUSH1 0x4 ADD PUSH2 0x865 SWAP1 PUSH2 0xDC2 JUMP JUMPDEST PUSH1 0x40 MLOAD DUP1 SWAP2 SUB SWAP1 REVERT JUMPDEST PUSH1 0x0 PUSH20 0xFFFFFFFFFFFFFFFFFFFFFFFFFFFFFFFFFFFFFFFF AND DUP3 PUSH20 0xFFFFFFFFFFFFFFFFFFFFFFFFFFFFFFFFFFFFFFFF AND EQ ISZERO PUSH2 0x8DE JUMPI PUSH1 0x40 MLOAD PUSH32 0x8C379A000000000000000000000000000000000000000000000000000000000 DUP2 MSTORE PUSH1 0x4 ADD PUSH2 0x8D5 SWAP1 PUSH2 0xD42 JUMP JUMPDEST PUSH1 0x40 MLOAD DUP1 SWAP2 SUB SWAP1 REVERT JUMPDEST PUSH2 0x8E9 DUP4 DUP4 DUP4 PUSH2 0xA76 JUMP JUMPDEST PUSH1 0x0 DUP1 PUSH1 0x0 DUP6 PUSH20 0xFFFFFFFFFFFFFFFFFFFFFFFFFFFFFFFFFFFFFFFF AND PUSH20 0xFFFFFFFFFFFFFFFFFFFFFFFFFFFFFFFFFFFFFFFF AND DUP2 MSTORE PUSH1 0x20 ADD SWAP1 DUP2 MSTORE PUSH1 0x20 ADD PUSH1 0x0 KECCAK256 SLOAD SWAP1 POP DUP2 DUP2 LT ISZERO PUSH2 0x96F JUMPI PUSH1 0x40 MLOAD PUSH32 0x8C379A000000000000000000000000000000000000000000000000000000000 DUP2 MSTORE PUSH1 0x4 ADD PUSH2 0x966 SWAP1 PUSH2 0xDA2 JUMP JUMPDEST PUSH1 0x40 MLOAD DUP1 SWAP2 SUB SWAP1 REVERT JUMPDEST DUP2 DUP2 SUB PUSH1 0x0 DUP1 DUP7 PUSH20 0xFFFFFFFFFFFFFFFFFFFFFFFFFFFFFFFFFFFFFFFF AND PUSH20 0xFFFFFFFFFFFFFFFFFFFFFFFFFFFFFFFFFFFFFFFF AND DUP2 MSTORE PUSH1 0x20 ADD SWAP1 DUP2 MSTORE PUSH1 0x20 ADD PUSH1 0x0 KECCAK256 DUP2 SWAP1 SSTORE POP DUP2 PUSH1 0x0 DUP1 DUP6 PUSH20 0xFFFFFFFFFFFFFFFFFFFFFFFFFFFFFFFFFFFFFFFF AND PUSH20 0xFFFFFFFFFFFFFFFFFFFFFFFFFFFFFFFFFFFFFFFF AND DUP2 MSTORE PUSH1 0x20 ADD SWAP1 DUP2 MSTORE PUSH1 0x20 ADD PUSH1 0x0 KECCAK256 PUSH1 0x0 DUP3 DUP3 SLOAD ADD SWAP3 POP POP DUP2 SWAP1 SSTORE POP DUP3 PUSH20 0xFFFFFFFFFFFFFFFFFFFFFFFFFFFFFFFFFFFFFFFF AND DUP5 PUSH20 0xFFFFFFFFFFFFFFFFFFFFFFFFFFFFFFFFFFFFFFFF AND PUSH32 0xDDF252AD1BE2C89B69C2B068FC378DAA952BA7F163C4A11628F55A4DF523B3EF DUP5 PUSH1 0x40 MLOAD PUSH2 0xA5D SWAP2 SWAP1 PUSH2 0xE22 JUMP JUMPDEST PUSH1 0x40 MLOAD DUP1 SWAP2 SUB SWAP1 LOG3 PUSH2 0xA70 DUP5 DUP5 DUP5 PUSH2 0xA7B JUMP JUMPDEST POP POP POP POP JUMP JUMPDEST POP POP POP JUMP JUMPDEST POP POP POP JUMP JUMPDEST PUSH1 0x0 DUP2 CALLDATALOAD SWAP1 POP PUSH2 0xA8F DUP2 PUSH2 0x11FB JUMP JUMPDEST SWAP3 SWAP2 POP POP JUMP JUMPDEST PUSH1 0x0 DUP2 CALLDATALOAD SWAP1 POP PUSH2 0xAA4 DUP2 PUSH2 0x1212 JUMP JUMPDEST SWAP3 SWAP2 POP POP JUMP JUMPDEST PUSH1 0x0 PUSH1 0x20 DUP3 DUP5 SUB SLT ISZERO PUSH2 0xAC0 JUMPI PUSH2 0xABF PUSH2 0xFE2 JUMP JUMPDEST JUMPDEST PUSH1 0x0 PUSH2 0xACE DUP5 DUP3 DUP6 ADD PUSH2 0xA80 JUMP JUMPDEST SWAP2 POP POP SWAP3 SWAP2 POP POP JUMP JUMPDEST PUSH1 0x0 DUP1 PUSH1 0x40 DUP4 DUP6 SUB SLT ISZERO PUSH2 0xAEE JUMPI PUSH2 0xAED PUSH2 0xFE2 JUMP JUMPDEST JUMPDEST PUSH1 0x0 PUSH2 0xAFC DUP6 DUP3 DUP7 ADD PUSH2 0xA80 JUMP JUMPDEST SWAP3 POP POP PUSH1 0x20 PUSH2 0xB0D DUP6 DUP3 DUP7 ADD PUSH2 0xA80 JUMP JUMPDEST SWAP2 POP POP SWAP3 POP SWAP3 SWAP1 POP JUMP JUMPDEST PUSH1 0x0 DUP1 PUSH1 0x0 PUSH1 0x60 DUP5 DUP7 SUB SLT ISZERO PUSH2 0xB30 JUMPI PUSH2 0xB2F PUSH2 0xFE2 JUMP JUMPDEST JUMPDEST PUSH1 0x0 PUSH2 0xB3E DUP7 DUP3 DUP8 ADD PUSH2 0xA80 JUMP JUMPDEST SWAP4 POP POP PUSH1 0x20 PUSH2 0xB4F DUP7 DUP3 DUP8 ADD PUSH2 0xA80 JUMP JUMPDEST SWAP3 POP POP PUSH1 0x40 PUSH2 0xB60 DUP7 DUP3 DUP8 ADD PUSH2 0xA95 JUMP JUMPDEST SWAP2 POP POP SWAP3 POP SWAP3 POP SWAP3 JUMP JUMPDEST PUSH1 0x0 DUP1 PUSH1 0x40 DUP4 DUP6 SUB SLT ISZERO PUSH2 0xB81 JUMPI PUSH2 0xB80 PUSH2 0xFE2 JUMP JUMPDEST JUMPDEST PUSH1 0x0 PUSH2 0xB8F DUP6 DUP3 DUP7 ADD PUSH2 0xA80 JUMP JUMPDEST SWAP3 POP POP PUSH1 0x20 PUSH2 0xBA0 DUP6 DUP3 DUP7 ADD PUSH2 0xA95 JUMP JUMPDEST SWAP2 POP POP SWAP3 POP SWAP3 SWAP1 POP JUMP JUMPDEST PUSH2 0xBB3 DUP2 PUSH2 0xEDC JUMP JUMPDEST DUP3 MSTORE POP POP JUMP JUMPDEST PUSH1 0x0 PUSH2 0xBC4 DUP3 PUSH2 0xE58 JUMP JUMPDEST PUSH2 0xBCE DUP2 DUP6 PUSH2 0xE63 JUMP JUMPDEST SWAP4 POP PUSH2 0xBDE DUP2 DUP6 PUSH1 0x20 DUP7 ADD PUSH2 0xF1F JUMP JUMPDEST PUSH2 0xBE7 DUP2 PUSH2 0xFE7 JUMP JUMPDEST DUP5 ADD SWAP2 POP POP SWAP3 SWAP2 POP POP JUMP JUMPDEST PUSH1 0x0 PUSH2 0xBFF PUSH1 0x23 DUP4 PUSH2 0xE63 JUMP JUMPDEST SWAP2 POP PUSH2 0xC0A DUP3 PUSH2 0xFF8 JUMP JUMPDEST PUSH1 0x40 DUP3 ADD SWAP1 POP SWAP2 SWAP1 POP JUMP JUMPDEST PUSH1 0x0 PUSH2 0xC22 PUSH1 0x22 DUP4 PUSH2 0xE63 JUMP JUMPDEST SWAP2 POP PUSH2 0xC2D DUP3 PUSH2 0x1047 JUMP JUMPDEST PUSH1 0x40 DUP3 ADD SWAP1 POP SWAP2 SWAP1 POP JUMP JUMPDEST PUSH1 0x0 PUSH2 0xC45 PUSH1 0x1D DUP4 PUSH2 0xE63 JUMP JUMPDEST SWAP2 POP PUSH2 0xC50 DUP3 PUSH2 0x1096 JUMP JUMPDEST PUSH1 0x20 DUP3 ADD SWAP1 POP SWAP2 SWAP1 POP JUMP JUMPDEST PUSH1 0x0 PUSH2 0xC68 PUSH1 0x26 DUP4 PUSH2 0xE63 JUMP JUMPDEST SWAP2 POP PUSH2 0xC73 DUP3 PUSH2 0x10BF JUMP JUMPDEST PUSH1 0x40 DUP3 ADD SWAP1 POP SWAP2 SWAP1 POP JUMP JUMPDEST PUSH1 0x0 PUSH2 0xC8B PUSH1 0x25 DUP4 PUSH2 0xE63 JUMP JUMPDEST SWAP2 POP PUSH2 0xC96 DUP3 PUSH2 0x110E JUMP JUMPDEST PUSH1 0x40 DUP3 ADD SWAP1 POP SWAP2 SWAP1 POP JUMP JUMPDEST PUSH1 0x0 PUSH2 0xCAE PUSH1 0x24 DUP4 PUSH2 0xE63 JUMP JUMPDEST SWAP2 POP PUSH2 0xCB9 DUP3 PUSH2 0x115D JUMP JUMPDEST PUSH1 0x40 DUP3 ADD SWAP1 POP SWAP2 SWAP1 POP JUMP JUMPDEST PUSH1 0x0 PUSH2 0xCD1 PUSH1 0x25 DUP4 PUSH2 0xE63 JUMP JUMPDEST SWAP2 POP PUSH2 0xCDC DUP3 PUSH2 0x11AC JUMP JUMPDEST PUSH1 0x40 DUP3 ADD SWAP1 POP SWAP2 SWAP1 POP JUMP JUMPDEST PUSH2 0xCF0 DUP2 PUSH2 0xF08 JUMP JUMPDEST DUP3 MSTORE POP POP JUMP JUMPDEST PUSH2 0xCFF DUP2 PUSH2 0xF12 JUMP JUMPDEST DUP3 MSTORE POP POP JUMP JUMPDEST PUSH1 0x0 PUSH1 0x20 DUP3 ADD SWAP1 POP PUSH2 0xD1A PUSH1 0x0 DUP4 ADD DUP5 PUSH2 0xBAA JUMP JUMPDEST SWAP3 SWAP2 POP POP JUMP JUMPDEST PUSH1 0x0 PUSH1 0x20 DUP3 ADD SWAP1 POP DUP2 DUP2 SUB PUSH1 0x0 DUP4 ADD MSTORE PUSH2 0xD3A DUP2 DUP5 PUSH2 0xBB9 JUMP JUMPDEST SWAP1 POP SWAP3 SWAP2 POP POP JUMP JUMPDEST PUSH1 0x0 PUSH1 0x20 DUP3 ADD SWAP1 POP DUP2 DUP2 SUB PUSH1 0x0 DUP4 ADD MSTORE PUSH2 0xD5B DUP2 PUSH2 0xBF2 JUMP JUMPDEST SWAP1 POP SWAP2 SWAP1 POP JUMP JUMPDEST PUSH1 0x0 PUSH1 0x20 DUP3 ADD SWAP1 POP DUP2 DUP2 SUB PUSH1 0x0 DUP4 ADD MSTORE PUSH2 0xD7B DUP2 PUSH2 0xC15 JUMP JUMPDEST SWAP1 POP SWAP2 SWAP1 POP JUMP JUMPDEST PUSH1 0x0 PUSH1 0x20 DUP3 ADD SWAP1 POP DUP2 DUP2 SUB PUSH1 0x0 DUP4 ADD MSTORE PUSH2 0xD9B DUP2 PUSH2 0xC38 JUMP JUMPDEST SWAP1 POP SWAP2 SWAP1 POP JUMP JUMPDEST PUSH1 0x0 PUSH1 0x20 DUP3 ADD SWAP1 POP DUP2 DUP2 SUB PUSH1 0x0 DUP4 ADD MSTORE PUSH2 0xDBB DUP2 PUSH2 0xC5B JUMP JUMPDEST SWAP1 POP SWAP2 SWAP1 POP JUMP JUMPDEST PUSH1 0x0 PUSH1 0x20 DUP3 ADD SWAP1 POP DUP2 DUP2 SUB PUSH1 0x0 DUP4 ADD MSTORE PUSH2 0xDDB DUP2 PUSH2 0xC7E JUMP JUMPDEST SWAP1 POP SWAP2 SWAP1 POP JUMP JUMPDEST PUSH1 0x0 PUSH1 0x20 DUP3 ADD SWAP1 POP DUP2 DUP2 SUB PUSH1 0x0 DUP4 ADD MSTORE PUSH2 0xDFB DUP2 PUSH2 0xCA1 JUMP JUMPDEST SWAP1 POP SWAP2 SWAP1 POP JUMP JUMPDEST PUSH1 0x0 PUSH1 0x20 DUP3 ADD SWAP1 POP DUP2 DUP2 SUB PUSH1 0x0 DUP4 ADD MSTORE PUSH2 0xE1B DUP2 PUSH2 0xCC4 JUMP JUMPDEST SWAP1 POP SWAP2 SWAP1 POP JUMP JUMPDEST PUSH1 0x0 PUSH1 0x20 DUP3 ADD SWAP1 POP PUSH2 0xE37 PUSH1 0x0 DUP4 ADD DUP5 PUSH2 0xCE7 JUMP JUMPDEST SWAP3 SWAP2 POP POP JUMP JUMPDEST PUSH1 0x0 PUSH1 0x20 DUP3 ADD SWAP1 POP PUSH2 0xE52 PUSH1 0x0 DUP4 ADD DUP5 PUSH2 0xCF6 JUMP JUMPDEST SWAP3 SWAP2 POP POP JUMP JUMPDEST PUSH1 0x0 DUP2 MLOAD SWAP1 POP SWAP2 SWAP1 POP JUMP JUMPDEST PUSH1 0x0 DUP3 DUP3 MSTORE PUSH1 0x20 DUP3 ADD SWAP1 POP SWAP3 SWAP2 POP POP JUMP JUMPDEST PUSH1 0x0 PUSH2 0xE7F DUP3 PUSH2 0xF08 JUMP JUMPDEST SWAP2 POP PUSH2 0xE8A DUP4 PUSH2 0xF08 JUMP JUMPDEST SWAP3 POP DUP3 PUSH32 0xFFFFFFFFFFFFFFFFFFFFFFFFFFFFFFFFFFFFFFFFFFFFFFFFFFFFFFFFFFFFFFFF SUB DUP3 GT ISZERO PUSH2 0xEBF JUMPI PUSH2 0xEBE PUSH2 0xF84 JUMP JUMPDEST JUMPDEST DUP3 DUP3 ADD SWAP1 POP SWAP3 SWAP2 POP POP JUMP JUMPDEST PUSH1 0x0 PUSH2 0xED5 DUP3 PUSH2 0xEE8 JUMP JUMPDEST SWAP1 POP SWAP2 SWAP1 POP JUMP JUMPDEST PUSH1 0x0 DUP2 ISZERO ISZERO SWAP1 POP SWAP2 SWAP1 POP JUMP JUMPDEST PUSH1 0x0 PUSH20 0xFFFFFFFFFFFFFFFFFFFFFFFFFFFFFFFFFFFFFFFF DUP3 AND SWAP1 POP SWAP2 SWAP1 POP JUMP JUMPDEST PUSH1 0x0 DUP2 SWAP1 POP SWAP2 SWAP1 POP JUMP JUMPDEST PUSH1 0x0 PUSH1 0xFF DUP3 AND SWAP1 POP SWAP2 SWAP1 POP JUMP JUMPDEST PUSH1 0x0 JUMPDEST DUP4 DUP2 LT ISZERO PUSH2 0xF3D JUMPI DUP1 DUP3 ADD MLOAD DUP2 DUP5 ADD MSTORE PUSH1 0x20 DUP2 ADD SWAP1 POP PUSH2 0xF22 JUMP JUMPDEST DUP4 DUP2 GT ISZERO PUSH2 0xF4C JUMPI PUSH1 0x0 DUP5 DUP5 ADD MSTORE JUMPDEST POP POP POP POP JUMP JUMPDEST PUSH1 0x0 PUSH1 0x2 DUP3 DIV SWAP1 POP PUSH1 0x1 DUP3 AND DUP1 PUSH2 0xF6A JUMPI PUSH1 0x7F DUP3 AND SWAP2 POP JUMPDEST PUSH1 0x20 DUP3 LT DUP2 EQ ISZERO PUSH2 0xF7E JUMPI PUSH2 0xF7D PUSH2 0xFB3 JUMP JUMPDEST JUMPDEST POP SWAP2 SWAP1 POP JUMP JUMPDEST PUSH32 0x4E487B7100000000000000000000000000000000000000000000000000000000 PUSH1 0x0 MSTORE PUSH1 0x11 PUSH1 0x4 MSTORE PUSH1 0x24 PUSH1 0x0 REVERT JUMPDEST PUSH32 0x4E487B7100000000000000000000000000000000000000000000000000000000 PUSH1 0x0 MSTORE PUSH1 0x22 PUSH1 0x4 MSTORE PUSH1 0x24 PUSH1 0x0 REVERT JUMPDEST PUSH1 0x0 DUP1 REVERT JUMPDEST PUSH1 0x0 PUSH1 0x1F NOT PUSH1 0x1F DUP4 ADD AND SWAP1 POP SWAP2 SWAP1 POP JUMP JUMPDEST PUSH32 0x45524332303A207472616E7366657220746F20746865207A65726F2061646472 PUSH1 0x0 DUP3 ADD MSTORE PUSH32 0x6573730000000000000000000000000000000000000000000000000000000000 PUSH1 0x20 DUP3 ADD MSTORE POP JUMP JUMPDEST PUSH32 0x45524332303A20617070726F766520746F20746865207A65726F206164647265 PUSH1 0x0 DUP3 ADD MSTORE PUSH32 0x7373000000000000000000000000000000000000000000000000000000000000 PUSH1 0x20 DUP3 ADD MSTORE POP JUMP JUMPDEST PUSH32 0x45524332303A20696E73756666696369656E7420616C6C6F77616E6365000000 PUSH1 0x0 DUP3 ADD MSTORE POP JUMP JUMPDEST PUSH32 0x45524332303A207472616E7366657220616D6F756E7420657863656564732062 PUSH1 0x0 DUP3 ADD MSTORE PUSH32 0x616C616E63650000000000000000000000000000000000000000000000000000 PUSH1 0x20 DUP3 ADD MSTORE POP JUMP JUMPDEST PUSH32 0x45524332303A207472616E736665722066726F6D20746865207A65726F206164 PUSH1 0x0 DUP3 ADD MSTORE PUSH32 0x6472657373000000000000000000000000000000000000000000000000000000 PUSH1 0x20 DUP3 ADD MSTORE POP JUMP JUMPDEST PUSH32 0x45524332303A20617070726F76652066726F6D20746865207A65726F20616464 PUSH1 0x0 DUP3 ADD MSTORE PUSH32 0x7265737300000000000000000000000000000000000000000000000000000000 PUSH1 0x20 DUP3 ADD MSTORE POP JUMP JUMPDEST PUSH32 0x45524332303A2064656372656173656420616C6C6F77616E63652062656C6F77 PUSH1 0x0 DUP3 ADD MSTORE PUSH32 0x207A65726F000000000000000000000000000000000000000000000000000000 PUSH1 0x20 DUP3 ADD MSTORE POP JUMP JUMPDEST PUSH2 0x1204 DUP2 PUSH2 0xECA JUMP JUMPDEST DUP2 EQ PUSH2 0x120F JUMPI PUSH1 0x0 DUP1 REVERT JUMPDEST POP JUMP JUMPDEST PUSH2 0x121B DUP2 PUSH2 0xF08 JUMP JUMPDEST DUP2 EQ PUSH2 0x1226 JUMPI PUSH1 0x0 DUP1 REVERT JUMPDEST POP JUMP INVALID LOG2 PUSH5 0x6970667358 0x22 SLT KECCAK256 0x24 0xC1 SMOD RETURNDATACOPY ADD JUMP 0x5E 0xC MOD 0x2E GASPRICE 0xD4 0xD5 PUSH26 0x7D765DC97A9B182C6AE0BD46DBAC465CD9BE64736F6C63430008 MOD STOP CALLER "
		},
		"gasEstimates": {
			"creation": {
				"codeDepositCost": "1156200",
				"executionCost": "infinite",
				"totalCost": "infinite"
			},
			"external": {
				"getBalance(string,address)": "infinite",
				"getEthBalance()": "428",
				"getName(string)": "infinite",
				"getTokenAddress(string)": "infinite",
				"getTotalSupply(string)": "infinite",
				"swapEthToToken(string)": "infinite",
				"swapTokenToEth(string,uint256)": "infinite",
				"swapTokenToToken(string,string,uint256)": "infinite",
				"tokenInstanceMap(string)": "infinite",
				"tokens(uint256)": "infinite"
			}
		},
		"methodIdentifiers": {
			"getBalance(string,address)": "89f4b317",
			"getEthBalance()": "70ed0ada",
			"getName(string)": "6932cf81",
			"getTokenAddress(string)": "c4091236",
			"getTotalSupply(string)": "5463109e",
			"swapEthToToken(string)": "63fcf7c5",
			"swapTokenToEth(string,uint256)": "db6f63ee",
			"swapTokenToToken(string,string,uint256)": "bf015aae",
			"tokenInstanceMap(string)": "a93325ed",
			"tokens(uint256)": "4f64b2be"
		}
	},
	"abi": [
		{
			"inputs": [],
			"stateMutability": "nonpayable",
			"type": "constructor"
		},
		{
			"inputs": [
				{
					"internalType": "string",
					"name": "tokenName",
					"type": "string"
				},
				{
					"internalType": "address",
					"name": "_address",
					"type": "address"
				}
			],
			"name": "getBalance",
			"outputs": [
				{
					"internalType": "uint256",
					"name": "",
					"type": "uint256"
				}
			],
			"stateMutability": "view",
			"type": "function"
		},
		{
			"inputs": [],
			"name": "getEthBalance",
			"outputs": [
				{
					"internalType": "uint256",
					"name": "",
					"type": "uint256"
				}
			],
			"stateMutability": "view",
			"type": "function"
		},
		{
			"inputs": [
				{
					"internalType": "string",
					"name": "tokenName",
					"type": "string"
				}
			],
			"name": "getName",
			"outputs": [
				{
					"internalType": "string",
					"name": "",
					"type": "string"
				}
			],
			"stateMutability": "view",
			"type": "function"
		},
		{
			"inputs": [
				{
					"internalType": "string",
					"name": "tokenName",
					"type": "string"
				}
			],
			"name": "getTokenAddress",
			"outputs": [
				{
					"internalType": "address",
					"name": "",
					"type": "address"
				}
			],
			"stateMutability": "view",
			"type": "function"
		},
		{
			"inputs": [
				{
					"internalType": "string",
					"name": "tokenName",
					"type": "string"
				}
			],
			"name": "getTotalSupply",
			"outputs": [
				{
					"internalType": "uint256",
					"name": "",
					"type": "uint256"
				}
			],
			"stateMutability": "view",
			"type": "function"
		},
		{
			"inputs": [
				{
					"internalType": "string",
					"name": "tokenName",
					"type": "string"
				}
			],
			"name": "swapEthToToken",
			"outputs": [
				{
					"internalType": "uint256",
					"name": "",
					"type": "uint256"
				}
			],
			"stateMutability": "payable",
			"type": "function"
		},
		{
			"inputs": [
				{
					"internalType": "string",
					"name": "tokenName",
					"type": "string"
				},
				{
					"internalType": "uint256",
					"name": "_amount",
					"type": "uint256"
				}
			],
			"name": "swapTokenToEth",
			"outputs": [
				{
					"internalType": "uint256",
					"name": "",
					"type": "uint256"
				}
			],
			"stateMutability": "nonpayable",
			"type": "function"
		},
		{
			"inputs": [
				{
					"internalType": "string",
					"name": "srcTokenName",
					"type": "string"
				},
				{
					"internalType": "string",
					"name": "destTokenName",
					"type": "string"
				},
				{
					"internalType": "uint256",
					"name": "_amount",
					"type": "uint256"
				}
			],
			"name": "swapTokenToToken",
			"outputs": [],
			"stateMutability": "nonpayable",
			"type": "function"
		},
		{
			"inputs": [
				{
					"internalType": "string",
					"name": "",
					"type": "string"
				}
			],
			"name": "tokenInstanceMap",
			"outputs": [
				{
					"internalType": "contract ERC20",
					"name": "",
					"type": "address"
				}
			],
			"stateMutability": "view",
			"type": "function"
		},
		{
			"inputs": [
				{
					"internalType": "uint256",
					"name": "",
					"type": "uint256"
				}
			],
			"name": "tokens",
			"outputs": [
				{
					"internalType": "string",
					"name": "",
					"type": "string"
				}
			],
			"stateMutability": "view",
			"type": "function"
		}
	]
}